{
  "_format": "hh-sol-artifact-1",
  "contractName": "TuringKey",
  "sourceName": "contracts/TuringKey.sol",
  "abi": [
    {
      "inputs": [
        {
          "internalType": "string",
          "name": "_tokenURI",
          "type": "string"
        },
        {
          "internalType": "contract IBottoStaking",
          "name": "_bottoStaking",
          "type": "address"
        },
        {
          "internalType": "contract ERC721",
          "name": "_turingKey",
          "type": "address"
        },
        {
          "internalType": "contract ERC721",
          "name": "_brainDrops",
          "type": "address"
        },
        {
          "internalType": "address",
          "name": "_recipient",
          "type": "address"
        },
        {
          "internalType": "uint256",
          "name": "_mintStart",
          "type": "uint256"
        }
      ],
      "stateMutability": "nonpayable",
      "type": "constructor"
    },
    {
      "inputs": [
        {
          "internalType": "uint256",
          "name": "cost",
          "type": "uint256"
        },
        {
          "internalType": "uint256",
          "name": "sent",
          "type": "uint256"
        }
      ],
      "name": "InsufficientFunds",
      "type": "error"
    },
    {
      "inputs": [],
      "name": "InsufficientTokensRemain",
      "type": "error"
    },
    {
      "inputs": [
        {
          "internalType": "address",
          "name": "user",
          "type": "address"
        }
      ],
      "name": "MintHasNotStarted",
      "type": "error"
    },
    {
      "inputs": [
        {
          "internalType": "uint256",
          "name": "balance",
          "type": "uint256"
        },
        {
          "internalType": "uint8",
          "name": "limit",
          "type": "uint8"
        }
      ],
      "name": "SenderBalanceOverTokenLimit",
      "type": "error"
    },
    {
      "inputs": [
        {
          "internalType": "uint256",
          "name": "supply",
          "type": "uint256"
        },
        {
          "internalType": "uint256",
          "name": "absoluteMaximumTokens",
          "type": "uint256"
        }
      ],
      "name": "SupplyHigherThanAbsoluteMaximumTokens",
      "type": "error"
    },
    {
      "inputs": [
        {
          "internalType": "uint256",
          "name": "supply",
          "type": "uint256"
        },
        {
          "internalType": "uint256",
          "name": "tokenCount",
          "type": "uint256"
        }
      ],
      "name": "SupplyLowerThanTokenCount",
      "type": "error"
    },
    {
      "inputs": [
        {
          "internalType": "address",
          "name": "user",
          "type": "address"
        }
      ],
      "name": "UserCantMint",
      "type": "error"
    },
    {
      "anonymous": false,
      "inputs": [
        {
          "indexed": true,
          "internalType": "address",
          "name": "owner",
          "type": "address"
        },
        {
          "indexed": true,
          "internalType": "address",
          "name": "spender",
          "type": "address"
        },
        {
          "indexed": true,
          "internalType": "uint256",
          "name": "id",
          "type": "uint256"
        }
      ],
      "name": "Approval",
      "type": "event"
    },
    {
      "anonymous": false,
      "inputs": [
        {
          "indexed": true,
          "internalType": "address",
          "name": "owner",
          "type": "address"
        },
        {
          "indexed": true,
          "internalType": "address",
          "name": "operator",
          "type": "address"
        },
        {
          "indexed": false,
          "internalType": "bool",
          "name": "approved",
          "type": "bool"
        }
      ],
      "name": "ApprovalForAll",
      "type": "event"
    },
    {
      "anonymous": false,
      "inputs": [
        {
          "indexed": true,
          "internalType": "address",
          "name": "previousOwner",
          "type": "address"
        },
        {
          "indexed": true,
          "internalType": "address",
          "name": "newOwner",
          "type": "address"
        }
      ],
      "name": "OwnershipTransferred",
      "type": "event"
    },
    {
      "anonymous": false,
      "inputs": [
        {
          "indexed": true,
          "internalType": "address",
          "name": "from",
          "type": "address"
        },
        {
          "indexed": true,
          "internalType": "address",
          "name": "to",
          "type": "address"
        },
        {
          "indexed": true,
          "internalType": "uint256",
          "name": "id",
          "type": "uint256"
        }
      ],
      "name": "Transfer",
      "type": "event"
    },
    {
      "inputs": [],
      "name": "ABSOLUTE_MAXIMUM_TOKENS",
      "outputs": [
        {
          "internalType": "uint256",
          "name": "",
          "type": "uint256"
        }
      ],
      "stateMutability": "view",
      "type": "function"
    },
    {
      "inputs": [],
      "name": "HOLDER_TOKEN_LIMIT",
      "outputs": [
        {
          "internalType": "uint8",
          "name": "",
          "type": "uint8"
        }
      ],
      "stateMutability": "view",
      "type": "function"
    },
    {
      "inputs": [
        {
          "internalType": "address",
          "name": "spender",
          "type": "address"
        },
        {
          "internalType": "uint256",
          "name": "id",
          "type": "uint256"
        }
      ],
      "name": "approve",
      "outputs": [],
      "stateMutability": "nonpayable",
      "type": "function"
    },
    {
      "inputs": [
        {
          "internalType": "address",
          "name": "",
          "type": "address"
        }
      ],
      "name": "balanceOf",
      "outputs": [
        {
          "internalType": "uint256",
          "name": "",
          "type": "uint256"
        }
      ],
      "stateMutability": "view",
      "type": "function"
    },
    {
      "inputs": [],
      "name": "brainDrops",
      "outputs": [
        {
          "internalType": "contract ERC721",
          "name": "",
          "type": "address"
        }
      ],
      "stateMutability": "view",
      "type": "function"
    },
    {
      "inputs": [
        {
          "internalType": "uint256",
          "name": "tokenId",
          "type": "uint256"
        }
      ],
      "name": "burn",
      "outputs": [],
      "stateMutability": "nonpayable",
      "type": "function"
    },
    {
      "inputs": [],
      "name": "currentSupply",
      "outputs": [
        {
          "internalType": "uint256",
          "name": "",
          "type": "uint256"
        }
      ],
      "stateMutability": "view",
      "type": "function"
    },
    {
      "inputs": [
        {
          "internalType": "uint256",
          "name": "",
          "type": "uint256"
        }
      ],
      "name": "getApproved",
      "outputs": [
        {
          "internalType": "address",
          "name": "",
          "type": "address"
        }
      ],
      "stateMutability": "view",
      "type": "function"
    },
    {
      "inputs": [
        {
          "internalType": "address",
          "name": "",
          "type": "address"
        },
        {
          "internalType": "address",
          "name": "",
          "type": "address"
        }
      ],
      "name": "isApprovedForAll",
      "outputs": [
        {
          "internalType": "bool",
          "name": "",
          "type": "bool"
        }
      ],
      "stateMutability": "view",
      "type": "function"
    },
    {
      "inputs": [
        {
          "internalType": "address",
          "name": "to",
          "type": "address"
        },
        {
          "internalType": "uint8",
          "name": "amount",
          "type": "uint8"
        }
      ],
      "name": "mint",
      "outputs": [],
      "stateMutability": "payable",
      "type": "function"
    },
    {
      "inputs": [],
      "name": "name",
      "outputs": [
        {
          "internalType": "string",
          "name": "",
          "type": "string"
        }
      ],
      "stateMutability": "view",
      "type": "function"
    },
    {
      "inputs": [],
      "name": "owner",
      "outputs": [
        {
          "internalType": "address",
          "name": "",
          "type": "address"
        }
      ],
      "stateMutability": "view",
      "type": "function"
    },
    {
      "inputs": [
        {
          "internalType": "uint256",
          "name": "",
          "type": "uint256"
        }
      ],
      "name": "ownerOf",
      "outputs": [
        {
          "internalType": "address",
          "name": "",
          "type": "address"
        }
      ],
      "stateMutability": "view",
      "type": "function"
    },
    {
      "inputs": [],
      "name": "paymentRecipient",
      "outputs": [
        {
          "internalType": "address",
          "name": "",
          "type": "address"
        }
      ],
      "stateMutability": "view",
      "type": "function"
    },
    {
      "inputs": [],
      "name": "publicSalePrice",
      "outputs": [
        {
          "internalType": "uint256",
          "name": "",
          "type": "uint256"
        }
      ],
      "stateMutability": "view",
      "type": "function"
    },
    {
      "inputs": [],
      "name": "renounceOwnership",
      "outputs": [],
      "stateMutability": "nonpayable",
      "type": "function"
    },
    {
      "inputs": [
        {
          "internalType": "address",
          "name": "to",
          "type": "address"
        },
        {
          "internalType": "uint8",
          "name": "amount",
          "type": "uint8"
        },
        {
          "internalType": "bytes",
          "name": "data",
          "type": "bytes"
        }
      ],
      "name": "safeMint",
      "outputs": [],
      "stateMutability": "payable",
      "type": "function"
    },
    {
      "inputs": [
        {
          "internalType": "address",
          "name": "to",
          "type": "address"
        },
        {
          "internalType": "uint8",
          "name": "amount",
          "type": "uint8"
        }
      ],
      "name": "safeMint",
      "outputs": [],
      "stateMutability": "payable",
      "type": "function"
    },
    {
      "inputs": [
        {
          "internalType": "address",
          "name": "from",
          "type": "address"
        },
        {
          "internalType": "address",
          "name": "to",
          "type": "address"
        },
        {
          "internalType": "uint256",
          "name": "id",
          "type": "uint256"
        }
      ],
      "name": "safeTransferFrom",
      "outputs": [],
      "stateMutability": "nonpayable",
      "type": "function"
    },
    {
      "inputs": [
        {
          "internalType": "address",
          "name": "from",
          "type": "address"
        },
        {
          "internalType": "address",
          "name": "to",
          "type": "address"
        },
        {
          "internalType": "uint256",
          "name": "id",
          "type": "uint256"
        },
        {
          "internalType": "bytes",
          "name": "data",
          "type": "bytes"
        }
      ],
      "name": "safeTransferFrom",
      "outputs": [],
      "stateMutability": "nonpayable",
      "type": "function"
    },
    {
      "inputs": [
        {
          "internalType": "address",
          "name": "operator",
          "type": "address"
        },
        {
          "internalType": "bool",
          "name": "approved",
          "type": "bool"
        }
      ],
      "name": "setApprovalForAll",
      "outputs": [],
      "stateMutability": "nonpayable",
      "type": "function"
    },
    {
      "inputs": [
        {
          "internalType": "string",
          "name": "_internalTokenURI",
          "type": "string"
        }
      ],
      "name": "setInternalTokenURI",
      "outputs": [],
      "stateMutability": "nonpayable",
      "type": "function"
    },
    {
      "inputs": [
        {
          "internalType": "uint256",
          "name": "_publicSalePrice",
          "type": "uint256"
        }
      ],
      "name": "setPublicSalePrice",
      "outputs": [],
      "stateMutability": "nonpayable",
      "type": "function"
    },
    {
      "inputs": [
        {
          "internalType": "bytes4",
          "name": "interfaceId",
          "type": "bytes4"
        }
      ],
      "name": "supportsInterface",
      "outputs": [
        {
          "internalType": "bool",
          "name": "",
          "type": "bool"
        }
      ],
      "stateMutability": "pure",
      "type": "function"
    },
    {
      "inputs": [],
      "name": "symbol",
      "outputs": [
        {
          "internalType": "string",
          "name": "",
          "type": "string"
        }
      ],
      "stateMutability": "view",
      "type": "function"
    },
    {
      "inputs": [],
      "name": "timelock",
      "outputs": [
        {
          "internalType": "uint256",
          "name": "",
          "type": "uint256"
        }
      ],
      "stateMutability": "view",
      "type": "function"
    },
    {
      "inputs": [],
      "name": "tokenCount",
      "outputs": [
        {
          "internalType": "uint256",
          "name": "",
          "type": "uint256"
        }
      ],
      "stateMutability": "view",
      "type": "function"
    },
    {
      "inputs": [
        {
          "internalType": "uint256",
          "name": "tokenId",
          "type": "uint256"
        }
      ],
      "name": "tokenURI",
      "outputs": [
        {
          "internalType": "string",
          "name": "",
          "type": "string"
        }
      ],
      "stateMutability": "view",
      "type": "function"
    },
    {
      "inputs": [
        {
          "internalType": "address",
          "name": "from",
          "type": "address"
        },
        {
          "internalType": "address",
          "name": "to",
          "type": "address"
        },
        {
          "internalType": "uint256",
          "name": "id",
          "type": "uint256"
        }
      ],
      "name": "transferFrom",
      "outputs": [],
      "stateMutability": "nonpayable",
      "type": "function"
    },
    {
      "inputs": [
        {
          "internalType": "address",
          "name": "newOwner",
          "type": "address"
        }
      ],
      "name": "transferOwnership",
      "outputs": [],
      "stateMutability": "nonpayable",
      "type": "function"
    },
    {
      "inputs": [],
      "name": "turingKeyV1",
      "outputs": [
        {
          "internalType": "contract ERC721",
          "name": "",
          "type": "address"
        }
      ],
      "stateMutability": "view",
      "type": "function"
    },
    {
      "inputs": [
        {
          "internalType": "uint256",
          "name": "_supply",
          "type": "uint256"
        }
      ],
      "name": "updateCurrentSupply",
      "outputs": [],
      "stateMutability": "nonpayable",
      "type": "function"
    },
    {
      "inputs": [],
      "name": "withdraw",
      "outputs": [],
      "stateMutability": "nonpayable",
      "type": "function"
    },
    {
      "inputs": [
        {
          "internalType": "contract IERC20",
          "name": "token",
          "type": "address"
        }
      ],
      "name": "withdrawTokens",
      "outputs": [],
      "stateMutability": "nonpayable",
      "type": "function"
    }
  ],
  "bytecode": "0x608060405260c8600b556706f05b59d3b20000600c553480156200002257600080fd5b50604051620054913803806200549183398181016040528101906200004891906200067d565b6040518060400160405280600a81526020017f547572696e67204b6579000000000000000000000000000000000000000000008152506040518060400160405280600481526020017f544b4559000000000000000000000000000000000000000000000000000000008152508160009080519060200190620000cc92919062000306565b508060019080519060200190620000e592919062000306565b50505062000108620000fc6200023860201b60201c565b6200024060201b60201c565b85600990805190602001906200012092919062000306565b5084600760006101000a81548173ffffffffffffffffffffffffffffffffffffffff021916908373ffffffffffffffffffffffffffffffffffffffff16021790555083600e60006101000a81548173ffffffffffffffffffffffffffffffffffffffff021916908373ffffffffffffffffffffffffffffffffffffffff16021790555082600f60006101000a81548173ffffffffffffffffffffffffffffffffffffffff021916908373ffffffffffffffffffffffffffffffffffffffff16021790555081600d60006101000a81548173ffffffffffffffffffffffffffffffffffffffff021916908373ffffffffffffffffffffffffffffffffffffffff160217905550806008819055505050505050506200079d565b600033905090565b6000600660009054906101000a900473ffffffffffffffffffffffffffffffffffffffff16905081600660006101000a81548173ffffffffffffffffffffffffffffffffffffffff021916908373ffffffffffffffffffffffffffffffffffffffff1602179055508173ffffffffffffffffffffffffffffffffffffffff168173ffffffffffffffffffffffffffffffffffffffff167f8be0079c531659141344cd1fd0a4f28419497f9722a3daafe3b4186f6b6457e060405160405180910390a35050565b828054620003149062000767565b90600052602060002090601f01602090048101928262000338576000855562000384565b82601f106200035357805160ff191683800117855562000384565b8280016001018555821562000384579182015b828111156200038357825182559160200191906001019062000366565b5b50905062000393919062000397565b5090565b5b80821115620003b257600081600090555060010162000398565b5090565b6000604051905090565b600080fd5b600080fd5b600080fd5b600080fd5b6000601f19601f8301169050919050565b7f4e487b7100000000000000000000000000000000000000000000000000000000600052604160045260246000fd5b6200041f82620003d4565b810181811067ffffffffffffffff82111715620004415762000440620003e5565b5b80604052505050565b600062000456620003b6565b905062000464828262000414565b919050565b600067ffffffffffffffff821115620004875762000486620003e5565b5b6200049282620003d4565b9050602081019050919050565b60005b83811015620004bf578082015181840152602081019050620004a2565b83811115620004cf576000848401525b50505050565b6000620004ec620004e68462000469565b6200044a565b9050828152602081018484840111156200050b576200050a620003cf565b5b620005188482856200049f565b509392505050565b600082601f830112620005385762000537620003ca565b5b81516200054a848260208601620004d5565b91505092915050565b600073ffffffffffffffffffffffffffffffffffffffff82169050919050565b6000620005808262000553565b9050919050565b6000620005948262000573565b9050919050565b620005a68162000587565b8114620005b257600080fd5b50565b600081519050620005c6816200059b565b92915050565b6000620005d98262000573565b9050919050565b620005eb81620005cc565b8114620005f757600080fd5b50565b6000815190506200060b81620005e0565b92915050565b6200061c8162000573565b81146200062857600080fd5b50565b6000815190506200063c8162000611565b92915050565b6000819050919050565b620006578162000642565b81146200066357600080fd5b50565b60008151905062000677816200064c565b92915050565b60008060008060008060c087890312156200069d576200069c620003c0565b5b600087015167ffffffffffffffff811115620006be57620006bd620003c5565b5b620006cc89828a0162000520565b9650506020620006df89828a01620005b5565b9550506040620006f289828a01620005fa565b94505060606200070589828a01620005fa565b93505060806200071889828a016200062b565b92505060a06200072b89828a0162000666565b9150509295509295509295565b7f4e487b7100000000000000000000000000000000000000000000000000000000600052602260045260246000fd5b600060028204905060018216806200078057607f821691505b6020821081141562000797576200079662000738565b5b50919050565b614ce480620007ad6000396000f3fe6080604052600436106101f95760003560e01c8063715018a61161010d5780639f181b5e116100a0578063cb70db9e1161006f578063cb70db9e146106d0578063d33219b4146106fb578063e985e9c514610726578063f2fde38b14610763578063fb980a9c1461078c576101f9565b80639f181b5e14610616578063a22cb46514610641578063b88d4fde1461066a578063c87b56dd14610693576101f9565b80638da5cb5b116100dc5780638da5cb5b1461056a57806395d89b41146105955780639b6860c8146105c05780639d5fa571146105eb576101f9565b8063715018a6146104e3578063761c4c40146104fa578063771282f614610516578063791a251914610541576101f9565b806341b66e4311610190578063577255de1161015f578063577255de146103f957806363488b54146104225780636352211e1461044d578063691562a01461048a57806370a08231146104a6576101f9565b806341b66e431461036257806342842e0e1461037e57806342966c68146103a757806349df728c146103d0576101f9565b8063095ea7b3116101cc578063095ea7b3146102ce57806323b872dd146102f75780632b1eaf29146103205780633ccfd60b1461034b576101f9565b806301ffc9a7146101fe5780630244ab1a1461023b57806306fdde0314610266578063081812fc14610291575b600080fd5b34801561020a57600080fd5b5061022560048036038101906102209190613ca8565b6107b5565b6040516102329190613cf0565b60405180910390f35b34801561024757600080fd5b50610250610847565b60405161025d9190613d8a565b60405180910390f35b34801561027257600080fd5b5061027b61086d565b6040516102889190613e3e565b60405180910390f35b34801561029d57600080fd5b506102b860048036038101906102b39190613e96565b6108fb565b6040516102c59190613ee4565b60405180910390f35b3480156102da57600080fd5b506102f560048036038101906102f09190613f2b565b61092e565b005b34801561030357600080fd5b5061031e60048036038101906103199190613f6b565b610b17565b005b34801561032c57600080fd5b50610335610f17565b6040516103429190613ee4565b60405180910390f35b34801561035757600080fd5b50610360610f3d565b005b61037c6004803603810190610377919061412c565b611008565b005b34801561038a57600080fd5b506103a560048036038101906103a09190613f6b565b61188e565b005b3480156103b357600080fd5b506103ce60048036038101906103c99190613e96565b6119c6565b005b3480156103dc57600080fd5b506103f760048036038101906103f291906141d9565b6119d2565b005b34801561040557600080fd5b50610420600480360381019061041b9190613e96565b611b4f565b005b34801561042e57600080fd5b50610437611c6b565b6040516104449190613d8a565b60405180910390f35b34801561045957600080fd5b50610474600480360381019061046f9190613e96565b611c91565b6040516104819190613ee4565b60405180910390f35b6104a4600480360381019061049f9190614206565b611cc4565b005b3480156104b257600080fd5b506104cd60048036038101906104c89190614246565b612545565b6040516104da9190614282565b60405180910390f35b3480156104ef57600080fd5b506104f861255d565b005b610514600480360381019061050f9190614206565b6125e5565b005b34801561052257600080fd5b5061052b612e66565b6040516105389190614282565b60405180910390f35b34801561054d57600080fd5b5061056860048036038101906105639190613e96565b612e6c565b005b34801561057657600080fd5b5061057f612ef2565b60405161058c9190613ee4565b60405180910390f35b3480156105a157600080fd5b506105aa612f1c565b6040516105b79190613e3e565b60405180910390f35b3480156105cc57600080fd5b506105d5612faa565b6040516105e29190614282565b60405180910390f35b3480156105f757600080fd5b50610600612fb0565b60405161060d91906142ac565b60405180910390f35b34801561062257600080fd5b5061062b612fb5565b6040516106389190614282565b60405180910390f35b34801561064d57600080fd5b50610668600480360381019061066391906142f3565b612fbb565b005b34801561067657600080fd5b50610691600480360381019061068c9190614333565b6130b8565b005b34801561069f57600080fd5b506106ba60048036038101906106b59190613e96565b6131f3565b6040516106c79190613e3e565b60405180910390f35b3480156106dc57600080fd5b506106e5613287565b6040516106f29190614282565b60405180910390f35b34801561070757600080fd5b5061071061328d565b60405161071d9190614282565b60405180910390f35b34801561073257600080fd5b5061074d600480360381019061074891906143b6565b613293565b60405161075a9190613cf0565b60405180910390f35b34801561076f57600080fd5b5061078a60048036038101906107859190614246565b6132c2565b005b34801561079857600080fd5b506107b360048036038101906107ae9190614497565b6133ba565b005b60006301ffc9a760e01b827bffffffffffffffffffffffffffffffffffffffffffffffffffffffff1916148061081057506380ac58cd60e01b827bffffffffffffffffffffffffffffffffffffffffffffffffffffffff1916145b806108405750635b5e139f60e01b827bffffffffffffffffffffffffffffffffffffffffffffffffffffffff1916145b9050919050565b600e60009054906101000a900473ffffffffffffffffffffffffffffffffffffffff1681565b6000805461087a9061450f565b80601f01602080910402602001604051908101604052809291908181526020018280546108a69061450f565b80156108f35780601f106108c8576101008083540402835291602001916108f3565b820191906000526020600020905b8154815290600101906020018083116108d657829003601f168201915b505050505081565b60046020528060005260406000206000915054906101000a900473ffffffffffffffffffffffffffffffffffffffff1681565b60006003600083815260200190815260200160002060009054906101000a900473ffffffffffffffffffffffffffffffffffffffff1690508073ffffffffffffffffffffffffffffffffffffffff163373ffffffffffffffffffffffffffffffffffffffff161480610a265750600560008273ffffffffffffffffffffffffffffffffffffffff1673ffffffffffffffffffffffffffffffffffffffff16815260200190815260200160002060003373ffffffffffffffffffffffffffffffffffffffff1673ffffffffffffffffffffffffffffffffffffffff16815260200190815260200160002060009054906101000a900460ff165b610a65576040517f08c379a0000000000000000000000000000000000000000000000000000000008152600401610a5c9061458d565b60405180910390fd5b826004600084815260200190815260200160002060006101000a81548173ffffffffffffffffffffffffffffffffffffffff021916908373ffffffffffffffffffffffffffffffffffffffff160217905550818373ffffffffffffffffffffffffffffffffffffffff168273ffffffffffffffffffffffffffffffffffffffff167f8c5be1e5ebec7d5bd14f71427d1e84f3dd0314c0f7b2291e5b200ac8c7c3b92560405160405180910390a4505050565b6003600082815260200190815260200160002060009054906101000a900473ffffffffffffffffffffffffffffffffffffffff1673ffffffffffffffffffffffffffffffffffffffff168373ffffffffffffffffffffffffffffffffffffffff1614610bb8576040517f08c379a0000000000000000000000000000000000000000000000000000000008152600401610baf906145f9565b60405180910390fd5b600073ffffffffffffffffffffffffffffffffffffffff168273ffffffffffffffffffffffffffffffffffffffff161415610c28576040517f08c379a0000000000000000000000000000000000000000000000000000000008152600401610c1f90614665565b60405180910390fd5b8273ffffffffffffffffffffffffffffffffffffffff163373ffffffffffffffffffffffffffffffffffffffff161480610cc057506004600082815260200190815260200160002060009054906101000a900473ffffffffffffffffffffffffffffffffffffffff1673ffffffffffffffffffffffffffffffffffffffff163373ffffffffffffffffffffffffffffffffffffffff16145b80610d515750600560008473ffffffffffffffffffffffffffffffffffffffff1673ffffffffffffffffffffffffffffffffffffffff16815260200190815260200160002060003373ffffffffffffffffffffffffffffffffffffffff1673ffffffffffffffffffffffffffffffffffffffff16815260200190815260200160002060009054906101000a900460ff165b610d90576040517f08c379a0000000000000000000000000000000000000000000000000000000008152600401610d879061458d565b60405180910390fd5b600260008473ffffffffffffffffffffffffffffffffffffffff1673ffffffffffffffffffffffffffffffffffffffff1681526020019081526020016000206000815480929190600190039190505550600260008373ffffffffffffffffffffffffffffffffffffffff1673ffffffffffffffffffffffffffffffffffffffff16815260200190815260200160002060008154809291906001019190505550816003600083815260200190815260200160002060006101000a81548173ffffffffffffffffffffffffffffffffffffffff021916908373ffffffffffffffffffffffffffffffffffffffff1602179055506004600082815260200190815260200160002060006101000a81549073ffffffffffffffffffffffffffffffffffffffff0219169055808273ffffffffffffffffffffffffffffffffffffffff168473ffffffffffffffffffffffffffffffffffffffff167fddf252ad1be2c89b69c2b068fc378daa952ba7f163c4a11628f55a4df523b3ef60405160405180910390a4505050565b600d60009054906101000a900473ffffffffffffffffffffffffffffffffffffffff1681565b610f45613450565b73ffffffffffffffffffffffffffffffffffffffff16610f63612ef2565b73ffffffffffffffffffffffffffffffffffffffff1614610fb9576040517f08c379a0000000000000000000000000000000000000000000000000000000008152600401610fb0906146d1565b60405180910390fd5b60004790503373ffffffffffffffffffffffffffffffffffffffff166108fc829081150290604051600060405180830381858888f19350505050158015611004573d6000803e3d6000fd5b5050565b828260085442101561105157336040517f4dc456640000000000000000000000000000000000000000000000000000000081526004016110489190613ee4565b60405180910390fd5b600b548160ff16600a546110659190614720565b1061109c576040517fa2a40cc400000000000000000000000000000000000000000000000000000000815260040160405180910390fd5b600a60ff168160ff16600260008573ffffffffffffffffffffffffffffffffffffffff1673ffffffffffffffffffffffffffffffffffffffff168152602001908152602001600020546110ef9190614720565b1115611182578060ff16600260008473ffffffffffffffffffffffffffffffffffffffff1673ffffffffffffffffffffffffffffffffffffffff168152602001908152602001600020546111439190614720565b600a6040517fc9cf6a00000000000000000000000000000000000000000000000000000000008152600401611179929190614776565b60405180910390fd5b348160ff16600c54611194919061479f565b11156111e9578060ff16600c546111ab919061479f565b346040517f03eb8b540000000000000000000000000000000000000000000000000000000081526004016111e09291906147f9565b60405180910390fd5b6207e9006008546111fa9190614720565b4211156112e257600080600d60009054906101000a900473ffffffffffffffffffffffffffffffffffffffff1673ffffffffffffffffffffffffffffffffffffffff163460405161124a90614853565b60006040518083038185875af1925050503d8060008114611287576040519150601f19603f3d011682016040523d82523d6000602084013e61128c565b606091505b509150915060005b8660ff168160ff1610156112da57600a60008154809291906112b590614868565b91905055506112c788600a5484613458565b80806112d2906148b1565b915050611294565b505050611887565b6000600e60009054906101000a900473ffffffffffffffffffffffffffffffffffffffff1673ffffffffffffffffffffffffffffffffffffffff166370a08231336040518263ffffffff1660e01b815260040161133f9190613ee4565b602060405180830381865afa15801561135c573d6000803e3d6000fd5b505050506040513d601f19601f8201168201806040525081019061138091906148f0565b1461146657600080600d60009054906101000a900473ffffffffffffffffffffffffffffffffffffffff1673ffffffffffffffffffffffffffffffffffffffff16346040516113ce90614853565b60006040518083038185875af1925050503d806000811461140b576040519150601f19603f3d011682016040523d82523d6000602084013e611410565b606091505b509150915060005b8660ff168160ff16101561145e57600a600081548092919061143990614868565b919050555061144b88600a5484613458565b8080611456906148b1565b915050611418565b505050611887565b6202a3006008546114779190614720565b4211156116aa576000600760009054906101000a900473ffffffffffffffffffffffffffffffffffffffff1673ffffffffffffffffffffffffffffffffffffffff16638da7ad23336040518263ffffffff1660e01b81526004016114db9190613ee4565b602060405180830381865afa1580156114f8573d6000803e3d6000fd5b505050506040513d601f19601f8201168201806040525081019061151c91906148f0565b11806115c357506000600760009054906101000a900473ffffffffffffffffffffffffffffffffffffffff1673ffffffffffffffffffffffffffffffffffffffff16638da7ad23846040518263ffffffff1660e01b81526004016115809190613ee4565b602060405180830381865afa15801561159d573d6000803e3d6000fd5b505050506040513d601f19601f820116820180604052508101906115c191906148f0565b115b156116a957600080600d60009054906101000a900473ffffffffffffffffffffffffffffffffffffffff1673ffffffffffffffffffffffffffffffffffffffff163460405161161190614853565b60006040518083038185875af1925050503d806000811461164e576040519150601f19603f3d011682016040523d82523d6000602084013e611653565b606091505b509150915060005b8660ff168160ff1610156116a157600a600081548092919061167c90614868565b919050555061168e88600a5484613458565b8080611699906148b1565b91505061165b565b505050611887565b5b620546006008546116bb9190614720565b4211801561176457506000600f60009054906101000a900473ffffffffffffffffffffffffffffffffffffffff1673ffffffffffffffffffffffffffffffffffffffff166370a08231336040518263ffffffff1660e01b81526004016117219190613ee4565b602060405180830381865afa15801561173e573d6000803e3d6000fd5b505050506040513d601f19601f8201168201806040525081019061176291906148f0565b145b1561184a57600080600d60009054906101000a900473ffffffffffffffffffffffffffffffffffffffff1673ffffffffffffffffffffffffffffffffffffffff16346040516117b290614853565b60006040518083038185875af1925050503d80600081146117ef576040519150601f19603f3d011682016040523d82523d6000602084013e6117f4565b606091505b509150915060005b8660ff168160ff16101561184257600a600081548092919061181d90614868565b919050555061182f88600a5484613458565b808061183a906148b1565b9150506117fc565b505050611887565b336040517f848b315800000000000000000000000000000000000000000000000000000000815260040161187e9190613ee4565b60405180910390fd5b5050505050565b611899838383610b17565b60008273ffffffffffffffffffffffffffffffffffffffff163b1480611982575063150b7a0260e01b7bffffffffffffffffffffffffffffffffffffffffffffffffffffffff19168273ffffffffffffffffffffffffffffffffffffffff1663150b7a023386856040518463ffffffff1660e01b815260040161191e93929190614951565b6020604051808303816000875af115801561193d573d6000803e3d6000fd5b505050506040513d601f19601f8201168201806040525081019061196191906149b0565b7bffffffffffffffffffffffffffffffffffffffffffffffffffffffff1916145b6119c1576040517f08c379a00000000000000000000000000000000000000000000000000000000081526004016119b890614a29565b60405180910390fd5b505050565b6119cf81613592565b50565b6119da613450565b73ffffffffffffffffffffffffffffffffffffffff166119f8612ef2565b73ffffffffffffffffffffffffffffffffffffffff1614611a4e576040517f08c379a0000000000000000000000000000000000000000000000000000000008152600401611a45906146d1565b60405180910390fd5b60008173ffffffffffffffffffffffffffffffffffffffff166370a08231306040518263ffffffff1660e01b8152600401611a899190613ee4565b602060405180830381865afa158015611aa6573d6000803e3d6000fd5b505050506040513d601f19601f82011682018060405250810190611aca91906148f0565b90508173ffffffffffffffffffffffffffffffffffffffff1663a9059cbb33836040518363ffffffff1660e01b8152600401611b07929190614a49565b6020604051808303816000875af1158015611b26573d6000803e3d6000fd5b505050506040513d601f19601f82011682018060405250810190611b4a9190614a87565b505050565b611b57613450565b73ffffffffffffffffffffffffffffffffffffffff16611b75612ef2565b73ffffffffffffffffffffffffffffffffffffffff1614611bcb576040517f08c379a0000000000000000000000000000000000000000000000000000000008152600401611bc2906146d1565b60405180910390fd5b6103c9811115611c1657806103c96040517f66244271000000000000000000000000000000000000000000000000000000008152600401611c0d9291906147f9565b60405180910390fd5b600a54811015611c615780600a546040517fbfc5a594000000000000000000000000000000000000000000000000000000008152600401611c589291906147f9565b60405180910390fd5b80600b8190555050565b600f60009054906101000a900473ffffffffffffffffffffffffffffffffffffffff1681565b60036020528060005260406000206000915054906101000a900473ffffffffffffffffffffffffffffffffffffffff1681565b8181600854421015611d0d57336040517f4dc45664000000000000000000000000000000000000000000000000000000008152600401611d049190613ee4565b60405180910390fd5b600b548160ff16600a54611d219190614720565b10611d58576040517fa2a40cc400000000000000000000000000000000000000000000000000000000815260040160405180910390fd5b600a60ff168160ff16600260008573ffffffffffffffffffffffffffffffffffffffff1673ffffffffffffffffffffffffffffffffffffffff16815260200190815260200160002054611dab9190614720565b1115611e3e578060ff16600260008473ffffffffffffffffffffffffffffffffffffffff1673ffffffffffffffffffffffffffffffffffffffff16815260200190815260200160002054611dff9190614720565b600a6040517fc9cf6a00000000000000000000000000000000000000000000000000000000008152600401611e35929190614776565b60405180910390fd5b348160ff16600c54611e50919061479f565b1115611ea5578060ff16600c54611e67919061479f565b346040517f03eb8b54000000000000000000000000000000000000000000000000000000008152600401611e9c9291906147f9565b60405180910390fd5b6207e900600854611eb69190614720565b421115611f9d57600080600d60009054906101000a900473ffffffffffffffffffffffffffffffffffffffff1673ffffffffffffffffffffffffffffffffffffffff1634604051611f0690614853565b60006040518083038185875af1925050503d8060008114611f43576040519150601f19603f3d011682016040523d82523d6000602084013e611f48565b606091505b509150915060005b8560ff168160ff161015611f9557600a6000815480929190611f7190614868565b9190505550611f8287600a54613789565b8080611f8d906148b1565b915050611f50565b50505061253f565b6000600e60009054906101000a900473ffffffffffffffffffffffffffffffffffffffff1673ffffffffffffffffffffffffffffffffffffffff166370a08231336040518263ffffffff1660e01b8152600401611ffa9190613ee4565b602060405180830381865afa158015612017573d6000803e3d6000fd5b505050506040513d601f19601f8201168201806040525081019061203b91906148f0565b1461212057600080600d60009054906101000a900473ffffffffffffffffffffffffffffffffffffffff1673ffffffffffffffffffffffffffffffffffffffff163460405161208990614853565b60006040518083038185875af1925050503d80600081146120c6576040519150601f19603f3d011682016040523d82523d6000602084013e6120cb565b606091505b509150915060005b8560ff168160ff16101561211857600a60008154809291906120f490614868565b919050555061210587600a54613789565b8080612110906148b1565b9150506120d3565b50505061253f565b6202a3006008546121319190614720565b421115612363576000600760009054906101000a900473ffffffffffffffffffffffffffffffffffffffff1673ffffffffffffffffffffffffffffffffffffffff16638da7ad23336040518263ffffffff1660e01b81526004016121959190613ee4565b602060405180830381865afa1580156121b2573d6000803e3d6000fd5b505050506040513d601f19601f820116820180604052508101906121d691906148f0565b118061227d57506000600760009054906101000a900473ffffffffffffffffffffffffffffffffffffffff1673ffffffffffffffffffffffffffffffffffffffff16638da7ad23846040518263ffffffff1660e01b815260040161223a9190613ee4565b602060405180830381865afa158015612257573d6000803e3d6000fd5b505050506040513d601f19601f8201168201806040525081019061227b91906148f0565b115b1561236257600080600d60009054906101000a900473ffffffffffffffffffffffffffffffffffffffff1673ffffffffffffffffffffffffffffffffffffffff16346040516122cb90614853565b60006040518083038185875af1925050503d8060008114612308576040519150601f19603f3d011682016040523d82523d6000602084013e61230d565b606091505b509150915060005b8560ff168160ff16101561235a57600a600081548092919061233690614868565b919050555061234787600a54613789565b8080612352906148b1565b915050612315565b50505061253f565b5b620546006008546123749190614720565b4211801561241d57506000600f60009054906101000a900473ffffffffffffffffffffffffffffffffffffffff1673ffffffffffffffffffffffffffffffffffffffff166370a08231336040518263ffffffff1660e01b81526004016123da9190613ee4565b602060405180830381865afa1580156123f7573d6000803e3d6000fd5b505050506040513d601f19601f8201168201806040525081019061241b91906148f0565b145b1561250257600080600d60009054906101000a900473ffffffffffffffffffffffffffffffffffffffff1673ffffffffffffffffffffffffffffffffffffffff163460405161246b90614853565b60006040518083038185875af1925050503d80600081146124a8576040519150601f19603f3d011682016040523d82523d6000602084013e6124ad565b606091505b509150915060005b8560ff168160ff1610156124fa57600a60008154809291906124d690614868565b91905055506124e787600a54613789565b80806124f2906148b1565b9150506124b5565b50505061253f565b336040517f848b31580000000000000000000000000000000000000000000000000000000081526004016125369190613ee4565b60405180910390fd5b50505050565b60026020528060005260406000206000915090505481565b612565613450565b73ffffffffffffffffffffffffffffffffffffffff16612583612ef2565b73ffffffffffffffffffffffffffffffffffffffff16146125d9576040517f08c379a00000000000000000000000000000000000000000000000000000000081526004016125d0906146d1565b60405180910390fd5b6125e3600061399c565b565b818160085442101561262e57336040517f4dc456640000000000000000000000000000000000000000000000000000000081526004016126259190613ee4565b60405180910390fd5b600b548160ff16600a546126429190614720565b10612679576040517fa2a40cc400000000000000000000000000000000000000000000000000000000815260040160405180910390fd5b600a60ff168160ff16600260008573ffffffffffffffffffffffffffffffffffffffff1673ffffffffffffffffffffffffffffffffffffffff168152602001908152602001600020546126cc9190614720565b111561275f578060ff16600260008473ffffffffffffffffffffffffffffffffffffffff1673ffffffffffffffffffffffffffffffffffffffff168152602001908152602001600020546127209190614720565b600a6040517fc9cf6a00000000000000000000000000000000000000000000000000000000008152600401612756929190614776565b60405180910390fd5b348160ff16600c54612771919061479f565b11156127c6578060ff16600c54612788919061479f565b346040517f03eb8b540000000000000000000000000000000000000000000000000000000081526004016127bd9291906147f9565b60405180910390fd5b6207e9006008546127d79190614720565b4211156128be57600080600d60009054906101000a900473ffffffffffffffffffffffffffffffffffffffff1673ffffffffffffffffffffffffffffffffffffffff163460405161282790614853565b60006040518083038185875af1925050503d8060008114612864576040519150601f19603f3d011682016040523d82523d6000602084013e612869565b606091505b509150915060005b8560ff168160ff1610156128b657600a600081548092919061289290614868565b91905055506128a387600a54613a62565b80806128ae906148b1565b915050612871565b505050612e60565b6000600e60009054906101000a900473ffffffffffffffffffffffffffffffffffffffff1673ffffffffffffffffffffffffffffffffffffffff166370a08231336040518263ffffffff1660e01b815260040161291b9190613ee4565b602060405180830381865afa158015612938573d6000803e3d6000fd5b505050506040513d601f19601f8201168201806040525081019061295c91906148f0565b14612a4157600080600d60009054906101000a900473ffffffffffffffffffffffffffffffffffffffff1673ffffffffffffffffffffffffffffffffffffffff16346040516129aa90614853565b60006040518083038185875af1925050503d80600081146129e7576040519150601f19603f3d011682016040523d82523d6000602084013e6129ec565b606091505b509150915060005b8560ff168160ff161015612a3957600a6000815480929190612a1590614868565b9190505550612a2687600a54613a62565b8080612a31906148b1565b9150506129f4565b505050612e60565b6202a300600854612a529190614720565b421115612c84576000600760009054906101000a900473ffffffffffffffffffffffffffffffffffffffff1673ffffffffffffffffffffffffffffffffffffffff16638da7ad23336040518263ffffffff1660e01b8152600401612ab69190613ee4565b602060405180830381865afa158015612ad3573d6000803e3d6000fd5b505050506040513d601f19601f82011682018060405250810190612af791906148f0565b1180612b9e57506000600760009054906101000a900473ffffffffffffffffffffffffffffffffffffffff1673ffffffffffffffffffffffffffffffffffffffff16638da7ad23846040518263ffffffff1660e01b8152600401612b5b9190613ee4565b602060405180830381865afa158015612b78573d6000803e3d6000fd5b505050506040513d601f19601f82011682018060405250810190612b9c91906148f0565b115b15612c8357600080600d60009054906101000a900473ffffffffffffffffffffffffffffffffffffffff1673ffffffffffffffffffffffffffffffffffffffff1634604051612bec90614853565b60006040518083038185875af1925050503d8060008114612c29576040519150601f19603f3d011682016040523d82523d6000602084013e612c2e565b606091505b509150915060005b8560ff168160ff161015612c7b57600a6000815480929190612c5790614868565b9190505550612c6887600a54613a62565b8080612c73906148b1565b915050612c36565b505050612e60565b5b62054600600854612c959190614720565b42118015612d3e57506000600f60009054906101000a900473ffffffffffffffffffffffffffffffffffffffff1673ffffffffffffffffffffffffffffffffffffffff166370a08231336040518263ffffffff1660e01b8152600401612cfb9190613ee4565b602060405180830381865afa158015612d18573d6000803e3d6000fd5b505050506040513d601f19601f82011682018060405250810190612d3c91906148f0565b145b15612e2357600080600d60009054906101000a900473ffffffffffffffffffffffffffffffffffffffff1673ffffffffffffffffffffffffffffffffffffffff1634604051612d8c90614853565b60006040518083038185875af1925050503d8060008114612dc9576040519150601f19603f3d011682016040523d82523d6000602084013e612dce565b606091505b509150915060005b8560ff168160ff161015612e1b57600a6000815480929190612df790614868565b9190505550612e0887600a54613a62565b8080612e13906148b1565b915050612dd6565b505050612e60565b336040517f848b3158000000000000000000000000000000000000000000000000000000008152600401612e579190613ee4565b60405180910390fd5b50505050565b600b5481565b612e74613450565b73ffffffffffffffffffffffffffffffffffffffff16612e92612ef2565b73ffffffffffffffffffffffffffffffffffffffff1614612ee8576040517f08c379a0000000000000000000000000000000000000000000000000000000008152600401612edf906146d1565b60405180910390fd5b80600c8190555050565b6000600660009054906101000a900473ffffffffffffffffffffffffffffffffffffffff16905090565b60018054612f299061450f565b80601f0160208091040260200160405190810160405280929190818152602001828054612f559061450f565b8015612fa25780601f10612f7757610100808354040283529160200191612fa2565b820191906000526020600020905b815481529060010190602001808311612f8557829003601f168201915b505050505081565b600c5481565b600a81565b600a5481565b80600560003373ffffffffffffffffffffffffffffffffffffffff1673ffffffffffffffffffffffffffffffffffffffff16815260200190815260200160002060008473ffffffffffffffffffffffffffffffffffffffff1673ffffffffffffffffffffffffffffffffffffffff16815260200190815260200160002060006101000a81548160ff0219169083151502179055508173ffffffffffffffffffffffffffffffffffffffff163373ffffffffffffffffffffffffffffffffffffffff167f17307eab39ab6107e8899845ad3d59bd9653f200f220920489ca2b5937696c31836040516130ac9190613cf0565b60405180910390a35050565b6130c3848484610b17565b60008373ffffffffffffffffffffffffffffffffffffffff163b14806131ae575063150b7a0260e01b7bffffffffffffffffffffffffffffffffffffffffffffffffffffffff19168373ffffffffffffffffffffffffffffffffffffffff1663150b7a02338786866040518563ffffffff1660e01b815260040161314a9493929190614af8565b6020604051808303816000875af1158015613169573d6000803e3d6000fd5b505050506040513d601f19601f8201168201806040525081019061318d91906149b0565b7bffffffffffffffffffffffffffffffffffffffffffffffffffffffff1916145b6131ed576040517f08c379a00000000000000000000000000000000000000000000000000000000081526004016131e490614a29565b60405180910390fd5b50505050565b6060600980546132029061450f565b80601f016020809104026020016040519081016040528092919081815260200182805461322e9061450f565b801561327b5780601f106132505761010080835404028352916020019161327b565b820191906000526020600020905b81548152906001019060200180831161325e57829003601f168201915b50505050509050919050565b6103c981565b60085481565b60056020528160005260406000206020528060005260406000206000915091509054906101000a900460ff1681565b6132ca613450565b73ffffffffffffffffffffffffffffffffffffffff166132e8612ef2565b73ffffffffffffffffffffffffffffffffffffffff161461333e576040517f08c379a0000000000000000000000000000000000000000000000000000000008152600401613335906146d1565b60405180910390fd5b600073ffffffffffffffffffffffffffffffffffffffff168173ffffffffffffffffffffffffffffffffffffffff1614156133ae576040517f08c379a00000000000000000000000000000000000000000000000000000000081526004016133a590614bb6565b60405180910390fd5b6133b78161399c565b50565b6133c2613450565b73ffffffffffffffffffffffffffffffffffffffff166133e0612ef2565b73ffffffffffffffffffffffffffffffffffffffff1614613436576040517f08c379a000000000000000000000000000000000000000000000000000000000815260040161342d906146d1565b60405180910390fd5b806009908051906020019061344c929190613b99565b5050565b600033905090565b6134628383613789565b60008373ffffffffffffffffffffffffffffffffffffffff163b148061354e575063150b7a0260e01b7bffffffffffffffffffffffffffffffffffffffffffffffffffffffff19168373ffffffffffffffffffffffffffffffffffffffff1663150b7a0233600086866040518563ffffffff1660e01b81526004016134ea9493929190614af8565b6020604051808303816000875af1158015613509573d6000803e3d6000fd5b505050506040513d601f19601f8201168201806040525081019061352d91906149b0565b7bffffffffffffffffffffffffffffffffffffffffffffffffffffffff1916145b61358d576040517f08c379a000000000000000000000000000000000000000000000000000000000815260040161358490614a29565b60405180910390fd5b505050565b60006003600083815260200190815260200160002060009054906101000a900473ffffffffffffffffffffffffffffffffffffffff169050600073ffffffffffffffffffffffffffffffffffffffff166003600084815260200190815260200160002060009054906101000a900473ffffffffffffffffffffffffffffffffffffffff1673ffffffffffffffffffffffffffffffffffffffff16141561366d576040517f08c379a000000000000000000000000000000000000000000000000000000000815260040161366490614c22565b60405180910390fd5b600260008273ffffffffffffffffffffffffffffffffffffffff1673ffffffffffffffffffffffffffffffffffffffff16815260200190815260200160002060008154809291906001900391905055506003600083815260200190815260200160002060006101000a81549073ffffffffffffffffffffffffffffffffffffffff02191690556004600083815260200190815260200160002060006101000a81549073ffffffffffffffffffffffffffffffffffffffff021916905581600073ffffffffffffffffffffffffffffffffffffffff168273ffffffffffffffffffffffffffffffffffffffff167fddf252ad1be2c89b69c2b068fc378daa952ba7f163c4a11628f55a4df523b3ef60405160405180910390a45050565b600073ffffffffffffffffffffffffffffffffffffffff168273ffffffffffffffffffffffffffffffffffffffff1614156137f9576040517f08c379a00000000000000000000000000000000000000000000000000000000081526004016137f090614665565b60405180910390fd5b600073ffffffffffffffffffffffffffffffffffffffff166003600083815260200190815260200160002060009054906101000a900473ffffffffffffffffffffffffffffffffffffffff1673ffffffffffffffffffffffffffffffffffffffff161461389b576040517f08c379a000000000000000000000000000000000000000000000000000000000815260040161389290614c8e565b60405180910390fd5b600260008373ffffffffffffffffffffffffffffffffffffffff1673ffffffffffffffffffffffffffffffffffffffff16815260200190815260200160002060008154809291906001019190505550816003600083815260200190815260200160002060006101000a81548173ffffffffffffffffffffffffffffffffffffffff021916908373ffffffffffffffffffffffffffffffffffffffff160217905550808273ffffffffffffffffffffffffffffffffffffffff16600073ffffffffffffffffffffffffffffffffffffffff167fddf252ad1be2c89b69c2b068fc378daa952ba7f163c4a11628f55a4df523b3ef60405160405180910390a45050565b6000600660009054906101000a900473ffffffffffffffffffffffffffffffffffffffff16905081600660006101000a81548173ffffffffffffffffffffffffffffffffffffffff021916908373ffffffffffffffffffffffffffffffffffffffff1602179055508173ffffffffffffffffffffffffffffffffffffffff168173ffffffffffffffffffffffffffffffffffffffff167f8be0079c531659141344cd1fd0a4f28419497f9722a3daafe3b4186f6b6457e060405160405180910390a35050565b613a6c8282613789565b60008273ffffffffffffffffffffffffffffffffffffffff163b1480613b56575063150b7a0260e01b7bffffffffffffffffffffffffffffffffffffffffffffffffffffffff19168273ffffffffffffffffffffffffffffffffffffffff1663150b7a02336000856040518463ffffffff1660e01b8152600401613af293929190614951565b6020604051808303816000875af1158015613b11573d6000803e3d6000fd5b505050506040513d601f19601f82011682018060405250810190613b3591906149b0565b7bffffffffffffffffffffffffffffffffffffffffffffffffffffffff1916145b613b95576040517f08c379a0000000000000000000000000000000000000000000000000000000008152600401613b8c90614a29565b60405180910390fd5b5050565b828054613ba59061450f565b90600052602060002090601f016020900481019282613bc75760008555613c0e565b82601f10613be057805160ff1916838001178555613c0e565b82800160010185558215613c0e579182015b82811115613c0d578251825591602001919060010190613bf2565b5b509050613c1b9190613c1f565b5090565b5b80821115613c38576000816000905550600101613c20565b5090565b6000604051905090565b600080fd5b600080fd5b60007fffffffff0000000000000000000000000000000000000000000000000000000082169050919050565b613c8581613c50565b8114613c9057600080fd5b50565b600081359050613ca281613c7c565b92915050565b600060208284031215613cbe57613cbd613c46565b5b6000613ccc84828501613c93565b91505092915050565b60008115159050919050565b613cea81613cd5565b82525050565b6000602082019050613d056000830184613ce1565b92915050565b600073ffffffffffffffffffffffffffffffffffffffff82169050919050565b6000819050919050565b6000613d50613d4b613d4684613d0b565b613d2b565b613d0b565b9050919050565b6000613d6282613d35565b9050919050565b6000613d7482613d57565b9050919050565b613d8481613d69565b82525050565b6000602082019050613d9f6000830184613d7b565b92915050565b600081519050919050565b600082825260208201905092915050565b60005b83811015613ddf578082015181840152602081019050613dc4565b83811115613dee576000848401525b50505050565b6000601f19601f8301169050919050565b6000613e1082613da5565b613e1a8185613db0565b9350613e2a818560208601613dc1565b613e3381613df4565b840191505092915050565b60006020820190508181036000830152613e588184613e05565b905092915050565b6000819050919050565b613e7381613e60565b8114613e7e57600080fd5b50565b600081359050613e9081613e6a565b92915050565b600060208284031215613eac57613eab613c46565b5b6000613eba84828501613e81565b91505092915050565b6000613ece82613d0b565b9050919050565b613ede81613ec3565b82525050565b6000602082019050613ef96000830184613ed5565b92915050565b613f0881613ec3565b8114613f1357600080fd5b50565b600081359050613f2581613eff565b92915050565b60008060408385031215613f4257613f41613c46565b5b6000613f5085828601613f16565b9250506020613f6185828601613e81565b9150509250929050565b600080600060608486031215613f8457613f83613c46565b5b6000613f9286828701613f16565b9350506020613fa386828701613f16565b9250506040613fb486828701613e81565b9150509250925092565b600060ff82169050919050565b613fd481613fbe565b8114613fdf57600080fd5b50565b600081359050613ff181613fcb565b92915050565b600080fd5b600080fd5b7f4e487b7100000000000000000000000000000000000000000000000000000000600052604160045260246000fd5b61403982613df4565b810181811067ffffffffffffffff8211171561405857614057614001565b5b80604052505050565b600061406b613c3c565b90506140778282614030565b919050565b600067ffffffffffffffff82111561409757614096614001565b5b6140a082613df4565b9050602081019050919050565b82818337600083830152505050565b60006140cf6140ca8461407c565b614061565b9050828152602081018484840111156140eb576140ea613ffc565b5b6140f68482856140ad565b509392505050565b600082601f83011261411357614112613ff7565b5b81356141238482602086016140bc565b91505092915050565b60008060006060848603121561414557614144613c46565b5b600061415386828701613f16565b935050602061416486828701613fe2565b925050604084013567ffffffffffffffff81111561418557614184613c4b565b5b614191868287016140fe565b9150509250925092565b60006141a682613ec3565b9050919050565b6141b68161419b565b81146141c157600080fd5b50565b6000813590506141d3816141ad565b92915050565b6000602082840312156141ef576141ee613c46565b5b60006141fd848285016141c4565b91505092915050565b6000806040838503121561421d5761421c613c46565b5b600061422b85828601613f16565b925050602061423c85828601613fe2565b9150509250929050565b60006020828403121561425c5761425b613c46565b5b600061426a84828501613f16565b91505092915050565b61427c81613e60565b82525050565b60006020820190506142976000830184614273565b92915050565b6142a681613fbe565b82525050565b60006020820190506142c1600083018461429d565b92915050565b6142d081613cd5565b81146142db57600080fd5b50565b6000813590506142ed816142c7565b92915050565b6000806040838503121561430a57614309613c46565b5b600061431885828601613f16565b9250506020614329858286016142de565b9150509250929050565b6000806000806080858703121561434d5761434c613c46565b5b600061435b87828801613f16565b945050602061436c87828801613f16565b935050604061437d87828801613e81565b925050606085013567ffffffffffffffff81111561439e5761439d613c4b565b5b6143aa878288016140fe565b91505092959194509250565b600080604083850312156143cd576143cc613c46565b5b60006143db85828601613f16565b92505060206143ec85828601613f16565b9150509250929050565b600067ffffffffffffffff82111561441157614410614001565b5b61441a82613df4565b9050602081019050919050565b600061443a614435846143f6565b614061565b90508281526020810184848401111561445657614455613ffc565b5b6144618482856140ad565b509392505050565b600082601f83011261447e5761447d613ff7565b5b813561448e848260208601614427565b91505092915050565b6000602082840312156144ad576144ac613c46565b5b600082013567ffffffffffffffff8111156144cb576144ca613c4b565b5b6144d784828501614469565b91505092915050565b7f4e487b7100000000000000000000000000000000000000000000000000000000600052602260045260246000fd5b6000600282049050600182168061452757607f821691505b6020821081141561453b5761453a6144e0565b5b50919050565b7f4e4f545f415554484f52495a4544000000000000000000000000000000000000600082015250565b6000614577600e83613db0565b915061458282614541565b602082019050919050565b600060208201905081810360008301526145a68161456a565b9050919050565b7f57524f4e475f46524f4d00000000000000000000000000000000000000000000600082015250565b60006145e3600a83613db0565b91506145ee826145ad565b602082019050919050565b60006020820190508181036000830152614612816145d6565b9050919050565b7f494e56414c49445f524543495049454e54000000000000000000000000000000600082015250565b600061464f601183613db0565b915061465a82614619565b602082019050919050565b6000602082019050818103600083015261467e81614642565b9050919050565b7f4f776e61626c653a2063616c6c6572206973206e6f7420746865206f776e6572600082015250565b60006146bb602083613db0565b91506146c682614685565b602082019050919050565b600060208201905081810360008301526146ea816146ae565b9050919050565b7f4e487b7100000000000000000000000000000000000000000000000000000000600052601160045260246000fd5b600061472b82613e60565b915061473683613e60565b9250827fffffffffffffffffffffffffffffffffffffffffffffffffffffffffffffffff0382111561476b5761476a6146f1565b5b828201905092915050565b600060408201905061478b6000830185614273565b614798602083018461429d565b9392505050565b60006147aa82613e60565b91506147b583613e60565b9250817fffffffffffffffffffffffffffffffffffffffffffffffffffffffffffffffff04831182151516156147ee576147ed6146f1565b5b828202905092915050565b600060408201905061480e6000830185614273565b61481b6020830184614273565b9392505050565b600081905092915050565b50565b600061483d600083614822565b91506148488261482d565b600082019050919050565b600061485e82614830565b9150819050919050565b600061487382613e60565b91507fffffffffffffffffffffffffffffffffffffffffffffffffffffffffffffffff8214156148a6576148a56146f1565b5b600182019050919050565b60006148bc82613fbe565b915060ff8214156148d0576148cf6146f1565b5b600182019050919050565b6000815190506148ea81613e6a565b92915050565b60006020828403121561490657614905613c46565b5b6000614914848285016148db565b91505092915050565b600082825260208201905092915050565b600061493b60008361491d565b91506149468261482d565b600082019050919050565b60006080820190506149666000830186613ed5565b6149736020830185613ed5565b6149806040830184614273565b81810360608301526149918161492e565b9050949350505050565b6000815190506149aa81613c7c565b92915050565b6000602082840312156149c6576149c5613c46565b5b60006149d48482850161499b565b91505092915050565b7f554e534146455f524543495049454e5400000000000000000000000000000000600082015250565b6000614a13601083613db0565b9150614a1e826149dd565b602082019050919050565b60006020820190508181036000830152614a4281614a06565b9050919050565b6000604082019050614a5e6000830185613ed5565b614a6b6020830184614273565b9392505050565b600081519050614a81816142c7565b92915050565b600060208284031215614a9d57614a9c613c46565b5b6000614aab84828501614a72565b91505092915050565b600081519050919050565b6000614aca82614ab4565b614ad4818561491d565b9350614ae4818560208601613dc1565b614aed81613df4565b840191505092915050565b6000608082019050614b0d6000830187613ed5565b614b1a6020830186613ed5565b614b276040830185614273565b8181036060830152614b398184614abf565b905095945050505050565b7f4f776e61626c653a206e6577206f776e657220697320746865207a65726f206160008201527f6464726573730000000000000000000000000000000000000000000000000000602082015250565b6000614ba0602683613db0565b9150614bab82614b44565b604082019050919050565b60006020820190508181036000830152614bcf81614b93565b9050919050565b7f4e4f545f4d494e54454400000000000000000000000000000000000000000000600082015250565b6000614c0c600a83613db0565b9150614c1782614bd6565b602082019050919050565b60006020820190508181036000830152614c3b81614bff565b9050919050565b7f414c52454144595f4d494e544544000000000000000000000000000000000000600082015250565b6000614c78600e83613db0565b9150614c8382614c42565b602082019050919050565b60006020820190508181036000830152614ca781614c6b565b905091905056fea26469706673582212201ad0162db18adf6bf7aba888f1e7c394793579f9057034f488288d0f412c1fab64736f6c634300080b0033",
  "linkReferences": {},
  "deployedLinkReferences": {}
}