{
  "_format": "hh-sol-artifact-1",
  "contractName": "TuringKey",
  "sourceName": "contracts/TuringKey.sol",
  "abi": [
    {
      "inputs": [
        {
          "internalType": "string",
          "name": "_tokenURI",
          "type": "string"
        },
        {
          "internalType": "contract IBottoStaking",
          "name": "_bottoStaking",
          "type": "address"
        }
      ],
      "stateMutability": "nonpayable",
      "type": "constructor"
    },
    {
      "inputs": [
        {
          "internalType": "uint256",
          "name": "cost",
          "type": "uint256"
        },
        {
          "internalType": "uint256",
          "name": "sent",
          "type": "uint256"
        }
      ],
      "name": "InsufficientFunds",
      "type": "error"
    },
    {
      "inputs": [],
      "name": "InsufficientTokensRemain",
      "type": "error"
    },
    {
      "inputs": [
        {
          "internalType": "uint256",
          "name": "supply",
          "type": "uint256"
        },
        {
          "internalType": "uint256",
          "name": "absoluteMaximumTokens",
          "type": "uint256"
        }
      ],
      "name": "SupplyHigherThanAbsoluteMaximumTokens",
      "type": "error"
    },
    {
      "inputs": [
        {
          "internalType": "uint256",
          "name": "supply",
          "type": "uint256"
        },
        {
          "internalType": "uint256",
          "name": "tokenCount",
          "type": "uint256"
        }
      ],
      "name": "SupplyLowerThanTokenCount",
      "type": "error"
    },
    {
      "inputs": [
        {
          "internalType": "address",
          "name": "user",
          "type": "address"
        }
      ],
      "name": "UserIsNotAStaker",
      "type": "error"
    },
    {
      "anonymous": false,
      "inputs": [
        {
          "indexed": true,
          "internalType": "address",
          "name": "owner",
          "type": "address"
        },
        {
          "indexed": true,
          "internalType": "address",
          "name": "spender",
          "type": "address"
        },
        {
          "indexed": true,
          "internalType": "uint256",
          "name": "id",
          "type": "uint256"
        }
      ],
      "name": "Approval",
      "type": "event"
    },
    {
      "anonymous": false,
      "inputs": [
        {
          "indexed": true,
          "internalType": "address",
          "name": "owner",
          "type": "address"
        },
        {
          "indexed": true,
          "internalType": "address",
          "name": "operator",
          "type": "address"
        },
        {
          "indexed": false,
          "internalType": "bool",
          "name": "approved",
          "type": "bool"
        }
      ],
      "name": "ApprovalForAll",
      "type": "event"
    },
    {
      "anonymous": false,
      "inputs": [
        {
          "indexed": true,
          "internalType": "address",
          "name": "previousOwner",
          "type": "address"
        },
        {
          "indexed": true,
          "internalType": "address",
          "name": "newOwner",
          "type": "address"
        }
      ],
      "name": "OwnershipTransferred",
      "type": "event"
    },
    {
      "anonymous": false,
      "inputs": [
        {
          "indexed": true,
          "internalType": "address",
          "name": "from",
          "type": "address"
        },
        {
          "indexed": true,
          "internalType": "address",
          "name": "to",
          "type": "address"
        },
        {
          "indexed": true,
          "internalType": "uint256",
          "name": "id",
          "type": "uint256"
        }
      ],
      "name": "Transfer",
      "type": "event"
    },
    {
      "inputs": [],
      "name": "ABSOLUTE_MAXIMUM_TOKENS",
      "outputs": [
        {
          "internalType": "uint256",
          "name": "",
          "type": "uint256"
        }
      ],
      "stateMutability": "view",
      "type": "function"
    },
    {
      "inputs": [
        {
          "internalType": "address",
          "name": "spender",
          "type": "address"
        },
        {
          "internalType": "uint256",
          "name": "id",
          "type": "uint256"
        }
      ],
      "name": "approve",
      "outputs": [],
      "stateMutability": "nonpayable",
      "type": "function"
    },
    {
      "inputs": [
        {
          "internalType": "address",
          "name": "",
          "type": "address"
        }
      ],
      "name": "balanceOf",
      "outputs": [
        {
          "internalType": "uint256",
          "name": "",
          "type": "uint256"
        }
      ],
      "stateMutability": "view",
      "type": "function"
    },
    {
      "inputs": [
        {
          "internalType": "uint256",
          "name": "tokenId",
          "type": "uint256"
        }
      ],
      "name": "burn",
      "outputs": [],
      "stateMutability": "nonpayable",
      "type": "function"
    },
    {
      "inputs": [],
      "name": "currentSupply",
      "outputs": [
        {
          "internalType": "uint256",
          "name": "",
          "type": "uint256"
        }
      ],
      "stateMutability": "view",
      "type": "function"
    },
    {
      "inputs": [
        {
          "internalType": "uint256",
          "name": "",
          "type": "uint256"
        }
      ],
      "name": "getApproved",
      "outputs": [
        {
          "internalType": "address",
          "name": "",
          "type": "address"
        }
      ],
      "stateMutability": "view",
      "type": "function"
    },
    {
      "inputs": [
        {
          "internalType": "address",
          "name": "",
          "type": "address"
        },
        {
          "internalType": "address",
          "name": "",
          "type": "address"
        }
      ],
      "name": "isApprovedForAll",
      "outputs": [
        {
          "internalType": "bool",
          "name": "",
          "type": "bool"
        }
      ],
      "stateMutability": "view",
      "type": "function"
    },
    {
      "inputs": [
        {
          "internalType": "address",
          "name": "to",
          "type": "address"
        }
      ],
      "name": "mint",
      "outputs": [],
      "stateMutability": "payable",
      "type": "function"
    },
    {
      "inputs": [],
      "name": "name",
      "outputs": [
        {
          "internalType": "string",
          "name": "",
          "type": "string"
        }
      ],
      "stateMutability": "view",
      "type": "function"
    },
    {
      "inputs": [],
      "name": "owner",
      "outputs": [
        {
          "internalType": "address",
          "name": "",
          "type": "address"
        }
      ],
      "stateMutability": "view",
      "type": "function"
    },
    {
      "inputs": [
        {
          "internalType": "uint256",
          "name": "",
          "type": "uint256"
        }
      ],
      "name": "ownerOf",
      "outputs": [
        {
          "internalType": "address",
          "name": "",
          "type": "address"
        }
      ],
      "stateMutability": "view",
      "type": "function"
    },
    {
      "inputs": [],
      "name": "publicSalePrice",
      "outputs": [
        {
          "internalType": "uint256",
          "name": "",
          "type": "uint256"
        }
      ],
      "stateMutability": "view",
      "type": "function"
    },
    {
      "inputs": [],
      "name": "renounceOwnership",
      "outputs": [],
      "stateMutability": "nonpayable",
      "type": "function"
    },
    {
      "inputs": [
        {
          "internalType": "address",
          "name": "to",
          "type": "address"
        }
      ],
      "name": "safeMint",
      "outputs": [],
      "stateMutability": "payable",
      "type": "function"
    },
    {
      "inputs": [
        {
          "internalType": "address",
          "name": "to",
          "type": "address"
        },
        {
          "internalType": "bytes",
          "name": "data",
          "type": "bytes"
        }
      ],
      "name": "safeMint",
      "outputs": [],
      "stateMutability": "payable",
      "type": "function"
    },
    {
      "inputs": [
        {
          "internalType": "address",
          "name": "from",
          "type": "address"
        },
        {
          "internalType": "address",
          "name": "to",
          "type": "address"
        },
        {
          "internalType": "uint256",
          "name": "id",
          "type": "uint256"
        }
      ],
      "name": "safeTransferFrom",
      "outputs": [],
      "stateMutability": "nonpayable",
      "type": "function"
    },
    {
      "inputs": [
        {
          "internalType": "address",
          "name": "from",
          "type": "address"
        },
        {
          "internalType": "address",
          "name": "to",
          "type": "address"
        },
        {
          "internalType": "uint256",
          "name": "id",
          "type": "uint256"
        },
        {
          "internalType": "bytes",
          "name": "data",
          "type": "bytes"
        }
      ],
      "name": "safeTransferFrom",
      "outputs": [],
      "stateMutability": "nonpayable",
      "type": "function"
    },
    {
      "inputs": [
        {
          "internalType": "address",
          "name": "operator",
          "type": "address"
        },
        {
          "internalType": "bool",
          "name": "approved",
          "type": "bool"
        }
      ],
      "name": "setApprovalForAll",
      "outputs": [],
      "stateMutability": "nonpayable",
      "type": "function"
    },
    {
      "inputs": [
        {
          "internalType": "string",
          "name": "_internalTokenURI",
          "type": "string"
        }
      ],
      "name": "setInternalTokenURI",
      "outputs": [],
      "stateMutability": "nonpayable",
      "type": "function"
    },
    {
      "inputs": [
        {
          "internalType": "uint256",
          "name": "_publicSalePrice",
          "type": "uint256"
        }
      ],
      "name": "setPublicSalePrice",
      "outputs": [],
      "stateMutability": "nonpayable",
      "type": "function"
    },
    {
      "inputs": [
        {
          "internalType": "bytes4",
          "name": "interfaceId",
          "type": "bytes4"
        }
      ],
      "name": "supportsInterface",
      "outputs": [
        {
          "internalType": "bool",
          "name": "",
          "type": "bool"
        }
      ],
      "stateMutability": "pure",
      "type": "function"
    },
    {
      "inputs": [],
      "name": "symbol",
      "outputs": [
        {
          "internalType": "string",
          "name": "",
          "type": "string"
        }
      ],
      "stateMutability": "view",
      "type": "function"
    },
    {
      "inputs": [],
      "name": "timelock",
      "outputs": [
        {
          "internalType": "uint256",
          "name": "",
          "type": "uint256"
        }
      ],
      "stateMutability": "view",
      "type": "function"
    },
    {
      "inputs": [],
      "name": "tokenCount",
      "outputs": [
        {
          "internalType": "uint256",
          "name": "",
          "type": "uint256"
        }
      ],
      "stateMutability": "view",
      "type": "function"
    },
    {
      "inputs": [
        {
          "internalType": "uint256",
          "name": "tokenId",
          "type": "uint256"
        }
      ],
      "name": "tokenURI",
      "outputs": [
        {
          "internalType": "string",
          "name": "",
          "type": "string"
        }
      ],
      "stateMutability": "view",
      "type": "function"
    },
    {
      "inputs": [
        {
          "internalType": "address",
          "name": "from",
          "type": "address"
        },
        {
          "internalType": "address",
          "name": "to",
          "type": "address"
        },
        {
          "internalType": "uint256",
          "name": "id",
          "type": "uint256"
        }
      ],
      "name": "transferFrom",
      "outputs": [],
      "stateMutability": "nonpayable",
      "type": "function"
    },
    {
      "inputs": [
        {
          "internalType": "address",
          "name": "newOwner",
          "type": "address"
        }
      ],
      "name": "transferOwnership",
      "outputs": [],
      "stateMutability": "nonpayable",
      "type": "function"
    },
    {
      "inputs": [
        {
          "internalType": "uint256",
          "name": "_supply",
          "type": "uint256"
        }
      ],
      "name": "updateCurrentSupply",
      "outputs": [],
      "stateMutability": "nonpayable",
      "type": "function"
    },
    {
      "inputs": [],
      "name": "withdraw",
      "outputs": [],
      "stateMutability": "nonpayable",
      "type": "function"
    },
    {
      "inputs": [
        {
          "internalType": "contract IERC20",
          "name": "token",
          "type": "address"
        }
      ],
      "name": "withdrawTokens",
      "outputs": [],
      "stateMutability": "nonpayable",
      "type": "function"
    }
  ],
  "bytecode": "0x608060405260c8600b556706f05b59d3b20000600c553480156200002257600080fd5b5060405162003af338038062003af3833981810160405281019062000048919062000515565b6040518060400160405280600a81526020017f547572696e67204b6579000000000000000000000000000000000000000000008152506040518060400160405280600481526020017f544b4559000000000000000000000000000000000000000000000000000000008152508160009080519060200190620000cc9291906200024f565b508060019080519060200190620000e59291906200024f565b50505062000108620000fc6200018160201b60201c565b6200018960201b60201c565b8160099080519060200190620001209291906200024f565b5080600760006101000a81548173ffffffffffffffffffffffffffffffffffffffff021916908373ffffffffffffffffffffffffffffffffffffffff1602179055506202a30042620001739190620005b4565b600881905550505062000676565b600033905090565b6000600660009054906101000a900473ffffffffffffffffffffffffffffffffffffffff16905081600660006101000a81548173ffffffffffffffffffffffffffffffffffffffff021916908373ffffffffffffffffffffffffffffffffffffffff1602179055508173ffffffffffffffffffffffffffffffffffffffff168173ffffffffffffffffffffffffffffffffffffffff167f8be0079c531659141344cd1fd0a4f28419497f9722a3daafe3b4186f6b6457e060405160405180910390a35050565b8280546200025d9062000640565b90600052602060002090601f016020900481019282620002815760008555620002cd565b82601f106200029c57805160ff1916838001178555620002cd565b82800160010185558215620002cd579182015b82811115620002cc578251825591602001919060010190620002af565b5b509050620002dc9190620002e0565b5090565b5b80821115620002fb576000816000905550600101620002e1565b5090565b6000604051905090565b600080fd5b600080fd5b600080fd5b600080fd5b6000601f19601f8301169050919050565b7f4e487b7100000000000000000000000000000000000000000000000000000000600052604160045260246000fd5b62000368826200031d565b810181811067ffffffffffffffff821117156200038a57620003896200032e565b5b80604052505050565b60006200039f620002ff565b9050620003ad82826200035d565b919050565b600067ffffffffffffffff821115620003d057620003cf6200032e565b5b620003db826200031d565b9050602081019050919050565b60005b8381101562000408578082015181840152602081019050620003eb565b8381111562000418576000848401525b50505050565b6000620004356200042f84620003b2565b62000393565b90508281526020810184848401111562000454576200045362000318565b5b62000461848285620003e8565b509392505050565b600082601f83011262000481576200048062000313565b5b8151620004938482602086016200041e565b91505092915050565b600073ffffffffffffffffffffffffffffffffffffffff82169050919050565b6000620004c9826200049c565b9050919050565b6000620004dd82620004bc565b9050919050565b620004ef81620004d0565b8114620004fb57600080fd5b50565b6000815190506200050f81620004e4565b92915050565b600080604083850312156200052f576200052e62000309565b5b600083015167ffffffffffffffff81111562000550576200054f6200030e565b5b6200055e8582860162000469565b92505060206200057185828601620004fe565b9150509250929050565b6000819050919050565b7f4e487b7100000000000000000000000000000000000000000000000000000000600052601160045260246000fd5b6000620005c1826200057b565b9150620005ce836200057b565b9250827fffffffffffffffffffffffffffffffffffffffffffffffffffffffffffffffff0382111562000606576200060562000585565b5b828201905092915050565b7f4e487b7100000000000000000000000000000000000000000000000000000000600052602260045260246000fd5b600060028204905060018216806200065957607f821691505b6020821081141562000670576200066f62000611565b5b50919050565b61346d80620006866000396000f3fe6080604052600436106101cd5760003560e01c8063771282f6116100f7578063a22cb46511610095578063d33219b411610064578063d33219b414610623578063e985e9c51461064e578063f2fde38b1461068b578063fb980a9c146106b4576101cd565b8063a22cb46514610569578063b88d4fde14610592578063c87b56dd146105bb578063cb70db9e146105f8576101cd565b80638da5cb5b116100d15780638da5cb5b146104bd57806395d89b41146104e85780639b6860c8146105135780639f181b5e1461053e576101cd565b8063771282f61461044d578063785bb03e14610478578063791a251914610494576101cd565b806342842e0e1161016f5780636352211e1161013e5780636352211e146103a05780636a627842146103dd57806370a08231146103f9578063715018a614610436576101cd565b806342842e0e146102fc57806342966c681461032557806349df728c1461034e578063577255de14610377576101cd565b8063095ea7b3116101ab578063095ea7b31461027757806323b872dd146102a05780633ccfd60b146102c957806340d097c3146102e0576101cd565b806301ffc9a7146101d257806306fdde031461020f578063081812fc1461023a575b600080fd5b3480156101de57600080fd5b506101f960048036038101906101f491906126a7565b6106dd565b60405161020691906126ef565b60405180910390f35b34801561021b57600080fd5b5061022461076f565b60405161023191906127a3565b60405180910390f35b34801561024657600080fd5b50610261600480360381019061025c91906127fb565b6107fd565b60405161026e9190612869565b60405180910390f35b34801561028357600080fd5b5061029e600480360381019061029991906128b0565b610830565b005b3480156102ac57600080fd5b506102c760048036038101906102c291906128f0565b610a19565b005b3480156102d557600080fd5b506102de610e19565b005b6102fa60048036038101906102f59190612943565b610ee4565b005b34801561030857600080fd5b50610323600480360381019061031e91906128f0565b611080565b005b34801561033157600080fd5b5061034c600480360381019061034791906127fb565b6111b8565b005b34801561035a57600080fd5b50610375600480360381019061037091906129ae565b6111c4565b005b34801561038357600080fd5b5061039e600480360381019061039991906127fb565b611341565b005b3480156103ac57600080fd5b506103c760048036038101906103c291906127fb565b61145d565b6040516103d49190612869565b60405180910390f35b6103f760048036038101906103f29190612943565b611490565b005b34801561040557600080fd5b50610420600480360381019061041b9190612943565b61162c565b60405161042d91906129ea565b60405180910390f35b34801561044257600080fd5b5061044b611644565b005b34801561045957600080fd5b506104626116cc565b60405161046f91906129ea565b60405180910390f35b610492600480360381019061048d9190612b3a565b6116d2565b005b3480156104a057600080fd5b506104bb60048036038101906104b691906127fb565b611870565b005b3480156104c957600080fd5b506104d26118f6565b6040516104df9190612869565b60405180910390f35b3480156104f457600080fd5b506104fd611920565b60405161050a91906127a3565b60405180910390f35b34801561051f57600080fd5b506105286119ae565b60405161053591906129ea565b60405180910390f35b34801561054a57600080fd5b506105536119b4565b60405161056091906129ea565b60405180910390f35b34801561057557600080fd5b50610590600480360381019061058b9190612bc2565b6119ba565b005b34801561059e57600080fd5b506105b960048036038101906105b49190612c02565b611ab7565b005b3480156105c757600080fd5b506105e260048036038101906105dd91906127fb565b611bf2565b6040516105ef91906127a3565b60405180910390f35b34801561060457600080fd5b5061060d611c86565b60405161061a91906129ea565b60405180910390f35b34801561062f57600080fd5b50610638611c8c565b60405161064591906129ea565b60405180910390f35b34801561065a57600080fd5b5061067560048036038101906106709190612c85565b611c92565b60405161068291906126ef565b60405180910390f35b34801561069757600080fd5b506106b260048036038101906106ad9190612943565b611cc1565b005b3480156106c057600080fd5b506106db60048036038101906106d69190612d66565b611db9565b005b60006301ffc9a760e01b827bffffffffffffffffffffffffffffffffffffffffffffffffffffffff1916148061073857506380ac58cd60e01b827bffffffffffffffffffffffffffffffffffffffffffffffffffffffff1916145b806107685750635b5e139f60e01b827bffffffffffffffffffffffffffffffffffffffffffffffffffffffff1916145b9050919050565b6000805461077c90612dde565b80601f01602080910402602001604051908101604052809291908181526020018280546107a890612dde565b80156107f55780601f106107ca576101008083540402835291602001916107f5565b820191906000526020600020905b8154815290600101906020018083116107d857829003601f168201915b505050505081565b60046020528060005260406000206000915054906101000a900473ffffffffffffffffffffffffffffffffffffffff1681565b60006003600083815260200190815260200160002060009054906101000a900473ffffffffffffffffffffffffffffffffffffffff1690508073ffffffffffffffffffffffffffffffffffffffff163373ffffffffffffffffffffffffffffffffffffffff1614806109285750600560008273ffffffffffffffffffffffffffffffffffffffff1673ffffffffffffffffffffffffffffffffffffffff16815260200190815260200160002060003373ffffffffffffffffffffffffffffffffffffffff1673ffffffffffffffffffffffffffffffffffffffff16815260200190815260200160002060009054906101000a900460ff165b610967576040517f08c379a000000000000000000000000000000000000000000000000000000000815260040161095e90612e5c565b60405180910390fd5b826004600084815260200190815260200160002060006101000a81548173ffffffffffffffffffffffffffffffffffffffff021916908373ffffffffffffffffffffffffffffffffffffffff160217905550818373ffffffffffffffffffffffffffffffffffffffff168273ffffffffffffffffffffffffffffffffffffffff167f8c5be1e5ebec7d5bd14f71427d1e84f3dd0314c0f7b2291e5b200ac8c7c3b92560405160405180910390a4505050565b6003600082815260200190815260200160002060009054906101000a900473ffffffffffffffffffffffffffffffffffffffff1673ffffffffffffffffffffffffffffffffffffffff168373ffffffffffffffffffffffffffffffffffffffff1614610aba576040517f08c379a0000000000000000000000000000000000000000000000000000000008152600401610ab190612ec8565b60405180910390fd5b600073ffffffffffffffffffffffffffffffffffffffff168273ffffffffffffffffffffffffffffffffffffffff161415610b2a576040517f08c379a0000000000000000000000000000000000000000000000000000000008152600401610b2190612f34565b60405180910390fd5b8273ffffffffffffffffffffffffffffffffffffffff163373ffffffffffffffffffffffffffffffffffffffff161480610bc257506004600082815260200190815260200160002060009054906101000a900473ffffffffffffffffffffffffffffffffffffffff1673ffffffffffffffffffffffffffffffffffffffff163373ffffffffffffffffffffffffffffffffffffffff16145b80610c535750600560008473ffffffffffffffffffffffffffffffffffffffff1673ffffffffffffffffffffffffffffffffffffffff16815260200190815260200160002060003373ffffffffffffffffffffffffffffffffffffffff1673ffffffffffffffffffffffffffffffffffffffff16815260200190815260200160002060009054906101000a900460ff165b610c92576040517f08c379a0000000000000000000000000000000000000000000000000000000008152600401610c8990612e5c565b60405180910390fd5b600260008473ffffffffffffffffffffffffffffffffffffffff1673ffffffffffffffffffffffffffffffffffffffff1681526020019081526020016000206000815480929190600190039190505550600260008373ffffffffffffffffffffffffffffffffffffffff1673ffffffffffffffffffffffffffffffffffffffff16815260200190815260200160002060008154809291906001019190505550816003600083815260200190815260200160002060006101000a81548173ffffffffffffffffffffffffffffffffffffffff021916908373ffffffffffffffffffffffffffffffffffffffff1602179055506004600082815260200190815260200160002060006101000a81549073ffffffffffffffffffffffffffffffffffffffff0219169055808273ffffffffffffffffffffffffffffffffffffffff168473ffffffffffffffffffffffffffffffffffffffff167fddf252ad1be2c89b69c2b068fc378daa952ba7f163c4a11628f55a4df523b3ef60405160405180910390a4505050565b610e21611e4f565b73ffffffffffffffffffffffffffffffffffffffff16610e3f6118f6565b73ffffffffffffffffffffffffffffffffffffffff1614610e95576040517f08c379a0000000000000000000000000000000000000000000000000000000008152600401610e8c90612fa0565b60405180910390fd5b60004790503373ffffffffffffffffffffffffffffffffffffffff166108fc829081150290604051600060405180830381858888f19350505050158015610ee0573d6000803e3d6000fd5b5050565b600854421015610fd0576000600760009054906101000a900473ffffffffffffffffffffffffffffffffffffffff1673ffffffffffffffffffffffffffffffffffffffff16638da7ad23336040518263ffffffff1660e01b8152600401610f4b9190612869565b602060405180830381865afa158015610f68573d6000803e3d6000fd5b505050506040513d601f19601f82011682018060405250810190610f8c9190612fd5565b1415610fcf57336040517f901a767e000000000000000000000000000000000000000000000000000000008152600401610fc69190612869565b60405180910390fd5b5b600b54600a54111561100e576040517fa2a40cc400000000000000000000000000000000000000000000000000000000815260040160405180910390fd5b34600c54111561105957600c54346040517f03eb8b54000000000000000000000000000000000000000000000000000000008152600401611050929190613002565b60405180910390fd5b600a600081548092919061106c9061305a565b919050555061107d81600a54611e57565b50565b61108b838383610a19565b60008273ffffffffffffffffffffffffffffffffffffffff163b1480611174575063150b7a0260e01b7bffffffffffffffffffffffffffffffffffffffffffffffffffffffff19168273ffffffffffffffffffffffffffffffffffffffff1663150b7a023386856040518463ffffffff1660e01b8152600401611110939291906130da565b6020604051808303816000875af115801561112f573d6000803e3d6000fd5b505050506040513d601f19601f820116820180604052508101906111539190613139565b7bffffffffffffffffffffffffffffffffffffffffffffffffffffffff1916145b6111b3576040517f08c379a00000000000000000000000000000000000000000000000000000000081526004016111aa906131b2565b60405180910390fd5b505050565b6111c181611f8e565b50565b6111cc611e4f565b73ffffffffffffffffffffffffffffffffffffffff166111ea6118f6565b73ffffffffffffffffffffffffffffffffffffffff1614611240576040517f08c379a000000000000000000000000000000000000000000000000000000000815260040161123790612fa0565b60405180910390fd5b60008173ffffffffffffffffffffffffffffffffffffffff166370a08231306040518263ffffffff1660e01b815260040161127b9190612869565b602060405180830381865afa158015611298573d6000803e3d6000fd5b505050506040513d601f19601f820116820180604052508101906112bc9190612fd5565b90508173ffffffffffffffffffffffffffffffffffffffff1663a9059cbb33836040518363ffffffff1660e01b81526004016112f99291906131d2565b6020604051808303816000875af1158015611318573d6000803e3d6000fd5b505050506040513d601f19601f8201168201806040525081019061133c9190613210565b505050565b611349611e4f565b73ffffffffffffffffffffffffffffffffffffffff166113676118f6565b73ffffffffffffffffffffffffffffffffffffffff16146113bd576040517f08c379a00000000000000000000000000000000000000000000000000000000081526004016113b490612fa0565b60405180910390fd5b6103c981111561140857806103c96040517f662442710000000000000000000000000000000000000000000000000000000081526004016113ff929190613002565b60405180910390fd5b600a548110156114535780600a546040517fbfc5a59400000000000000000000000000000000000000000000000000000000815260040161144a929190613002565b60405180910390fd5b80600b8190555050565b60036020528060005260406000206000915054906101000a900473ffffffffffffffffffffffffffffffffffffffff1681565b60085442101561157c576000600760009054906101000a900473ffffffffffffffffffffffffffffffffffffffff1673ffffffffffffffffffffffffffffffffffffffff16638da7ad23336040518263ffffffff1660e01b81526004016114f79190612869565b602060405180830381865afa158015611514573d6000803e3d6000fd5b505050506040513d601f19601f820116820180604052508101906115389190612fd5565b141561157b57336040517f901a767e0000000000000000000000000000000000000000000000000000000081526004016115729190612869565b60405180910390fd5b5b600b54600a5411156115ba576040517fa2a40cc400000000000000000000000000000000000000000000000000000000815260040160405180910390fd5b34600c54111561160557600c54346040517f03eb8b540000000000000000000000000000000000000000000000000000000081526004016115fc929190613002565b60405180910390fd5b600a60008154809291906116189061305a565b919050555061162981600a54612185565b50565b60026020528060005260406000206000915090505481565b61164c611e4f565b73ffffffffffffffffffffffffffffffffffffffff1661166a6118f6565b73ffffffffffffffffffffffffffffffffffffffff16146116c0576040517f08c379a00000000000000000000000000000000000000000000000000000000081526004016116b790612fa0565b60405180910390fd5b6116ca6000612398565b565b600b5481565b6008544210156117be576000600760009054906101000a900473ffffffffffffffffffffffffffffffffffffffff1673ffffffffffffffffffffffffffffffffffffffff16638da7ad23336040518263ffffffff1660e01b81526004016117399190612869565b602060405180830381865afa158015611756573d6000803e3d6000fd5b505050506040513d601f19601f8201168201806040525081019061177a9190612fd5565b14156117bd57336040517f901a767e0000000000000000000000000000000000000000000000000000000081526004016117b49190612869565b60405180910390fd5b5b600b54600a5411156117fc576040517fa2a40cc400000000000000000000000000000000000000000000000000000000815260040160405180910390fd5b34600c54111561184757600c54346040517f03eb8b5400000000000000000000000000000000000000000000000000000000815260040161183e929190613002565b60405180910390fd5b600a600081548092919061185a9061305a565b919050555061186c82600a548361245e565b5050565b611878611e4f565b73ffffffffffffffffffffffffffffffffffffffff166118966118f6565b73ffffffffffffffffffffffffffffffffffffffff16146118ec576040517f08c379a00000000000000000000000000000000000000000000000000000000081526004016118e390612fa0565b60405180910390fd5b80600c8190555050565b6000600660009054906101000a900473ffffffffffffffffffffffffffffffffffffffff16905090565b6001805461192d90612dde565b80601f016020809104026020016040519081016040528092919081815260200182805461195990612dde565b80156119a65780601f1061197b576101008083540402835291602001916119a6565b820191906000526020600020905b81548152906001019060200180831161198957829003601f168201915b505050505081565b600c5481565b600a5481565b80600560003373ffffffffffffffffffffffffffffffffffffffff1673ffffffffffffffffffffffffffffffffffffffff16815260200190815260200160002060008473ffffffffffffffffffffffffffffffffffffffff1673ffffffffffffffffffffffffffffffffffffffff16815260200190815260200160002060006101000a81548160ff0219169083151502179055508173ffffffffffffffffffffffffffffffffffffffff163373ffffffffffffffffffffffffffffffffffffffff167f17307eab39ab6107e8899845ad3d59bd9653f200f220920489ca2b5937696c3183604051611aab91906126ef565b60405180910390a35050565b611ac2848484610a19565b60008373ffffffffffffffffffffffffffffffffffffffff163b1480611bad575063150b7a0260e01b7bffffffffffffffffffffffffffffffffffffffffffffffffffffffff19168373ffffffffffffffffffffffffffffffffffffffff1663150b7a02338786866040518563ffffffff1660e01b8152600401611b499493929190613281565b6020604051808303816000875af1158015611b68573d6000803e3d6000fd5b505050506040513d601f19601f82011682018060405250810190611b8c9190613139565b7bffffffffffffffffffffffffffffffffffffffffffffffffffffffff1916145b611bec576040517f08c379a0000000000000000000000000000000000000000000000000000000008152600401611be3906131b2565b60405180910390fd5b50505050565b606060098054611c0190612dde565b80601f0160208091040260200160405190810160405280929190818152602001828054611c2d90612dde565b8015611c7a5780601f10611c4f57610100808354040283529160200191611c7a565b820191906000526020600020905b815481529060010190602001808311611c5d57829003601f168201915b50505050509050919050565b6103c981565b60085481565b60056020528160005260406000206020528060005260406000206000915091509054906101000a900460ff1681565b611cc9611e4f565b73ffffffffffffffffffffffffffffffffffffffff16611ce76118f6565b73ffffffffffffffffffffffffffffffffffffffff1614611d3d576040517f08c379a0000000000000000000000000000000000000000000000000000000008152600401611d3490612fa0565b60405180910390fd5b600073ffffffffffffffffffffffffffffffffffffffff168173ffffffffffffffffffffffffffffffffffffffff161415611dad576040517f08c379a0000000000000000000000000000000000000000000000000000000008152600401611da49061333f565b60405180910390fd5b611db681612398565b50565b611dc1611e4f565b73ffffffffffffffffffffffffffffffffffffffff16611ddf6118f6565b73ffffffffffffffffffffffffffffffffffffffff1614611e35576040517f08c379a0000000000000000000000000000000000000000000000000000000008152600401611e2c90612fa0565b60405180910390fd5b8060099080519060200190611e4b929190612598565b5050565b600033905090565b611e618282612185565b60008273ffffffffffffffffffffffffffffffffffffffff163b1480611f4b575063150b7a0260e01b7bffffffffffffffffffffffffffffffffffffffffffffffffffffffff19168273ffffffffffffffffffffffffffffffffffffffff1663150b7a02336000856040518463ffffffff1660e01b8152600401611ee7939291906130da565b6020604051808303816000875af1158015611f06573d6000803e3d6000fd5b505050506040513d601f19601f82011682018060405250810190611f2a9190613139565b7bffffffffffffffffffffffffffffffffffffffffffffffffffffffff1916145b611f8a576040517f08c379a0000000000000000000000000000000000000000000000000000000008152600401611f81906131b2565b60405180910390fd5b5050565b60006003600083815260200190815260200160002060009054906101000a900473ffffffffffffffffffffffffffffffffffffffff169050600073ffffffffffffffffffffffffffffffffffffffff166003600084815260200190815260200160002060009054906101000a900473ffffffffffffffffffffffffffffffffffffffff1673ffffffffffffffffffffffffffffffffffffffff161415612069576040517f08c379a0000000000000000000000000000000000000000000000000000000008152600401612060906133ab565b60405180910390fd5b600260008273ffffffffffffffffffffffffffffffffffffffff1673ffffffffffffffffffffffffffffffffffffffff16815260200190815260200160002060008154809291906001900391905055506003600083815260200190815260200160002060006101000a81549073ffffffffffffffffffffffffffffffffffffffff02191690556004600083815260200190815260200160002060006101000a81549073ffffffffffffffffffffffffffffffffffffffff021916905581600073ffffffffffffffffffffffffffffffffffffffff168273ffffffffffffffffffffffffffffffffffffffff167fddf252ad1be2c89b69c2b068fc378daa952ba7f163c4a11628f55a4df523b3ef60405160405180910390a45050565b600073ffffffffffffffffffffffffffffffffffffffff168273ffffffffffffffffffffffffffffffffffffffff1614156121f5576040517f08c379a00000000000000000000000000000000000000000000000000000000081526004016121ec90612f34565b60405180910390fd5b600073ffffffffffffffffffffffffffffffffffffffff166003600083815260200190815260200160002060009054906101000a900473ffffffffffffffffffffffffffffffffffffffff1673ffffffffffffffffffffffffffffffffffffffff1614612297576040517f08c379a000000000000000000000000000000000000000000000000000000000815260040161228e90613417565b60405180910390fd5b600260008373ffffffffffffffffffffffffffffffffffffffff1673ffffffffffffffffffffffffffffffffffffffff16815260200190815260200160002060008154809291906001019190505550816003600083815260200190815260200160002060006101000a81548173ffffffffffffffffffffffffffffffffffffffff021916908373ffffffffffffffffffffffffffffffffffffffff160217905550808273ffffffffffffffffffffffffffffffffffffffff16600073ffffffffffffffffffffffffffffffffffffffff167fddf252ad1be2c89b69c2b068fc378daa952ba7f163c4a11628f55a4df523b3ef60405160405180910390a45050565b6000600660009054906101000a900473ffffffffffffffffffffffffffffffffffffffff16905081600660006101000a81548173ffffffffffffffffffffffffffffffffffffffff021916908373ffffffffffffffffffffffffffffffffffffffff1602179055508173ffffffffffffffffffffffffffffffffffffffff168173ffffffffffffffffffffffffffffffffffffffff167f8be0079c531659141344cd1fd0a4f28419497f9722a3daafe3b4186f6b6457e060405160405180910390a35050565b6124688383612185565b60008373ffffffffffffffffffffffffffffffffffffffff163b1480612554575063150b7a0260e01b7bffffffffffffffffffffffffffffffffffffffffffffffffffffffff19168373ffffffffffffffffffffffffffffffffffffffff1663150b7a0233600086866040518563ffffffff1660e01b81526004016124f09493929190613281565b6020604051808303816000875af115801561250f573d6000803e3d6000fd5b505050506040513d601f19601f820116820180604052508101906125339190613139565b7bffffffffffffffffffffffffffffffffffffffffffffffffffffffff1916145b612593576040517f08c379a000000000000000000000000000000000000000000000000000000000815260040161258a906131b2565b60405180910390fd5b505050565b8280546125a490612dde565b90600052602060002090601f0160209004810192826125c6576000855561260d565b82601f106125df57805160ff191683800117855561260d565b8280016001018555821561260d579182015b8281111561260c5782518255916020019190600101906125f1565b5b50905061261a919061261e565b5090565b5b8082111561263757600081600090555060010161261f565b5090565b6000604051905090565b600080fd5b600080fd5b60007fffffffff0000000000000000000000000000000000000000000000000000000082169050919050565b6126848161264f565b811461268f57600080fd5b50565b6000813590506126a18161267b565b92915050565b6000602082840312156126bd576126bc612645565b5b60006126cb84828501612692565b91505092915050565b60008115159050919050565b6126e9816126d4565b82525050565b600060208201905061270460008301846126e0565b92915050565b600081519050919050565b600082825260208201905092915050565b60005b83811015612744578082015181840152602081019050612729565b83811115612753576000848401525b50505050565b6000601f19601f8301169050919050565b60006127758261270a565b61277f8185612715565b935061278f818560208601612726565b61279881612759565b840191505092915050565b600060208201905081810360008301526127bd818461276a565b905092915050565b6000819050919050565b6127d8816127c5565b81146127e357600080fd5b50565b6000813590506127f5816127cf565b92915050565b60006020828403121561281157612810612645565b5b600061281f848285016127e6565b91505092915050565b600073ffffffffffffffffffffffffffffffffffffffff82169050919050565b600061285382612828565b9050919050565b61286381612848565b82525050565b600060208201905061287e600083018461285a565b92915050565b61288d81612848565b811461289857600080fd5b50565b6000813590506128aa81612884565b92915050565b600080604083850312156128c7576128c6612645565b5b60006128d58582860161289b565b92505060206128e6858286016127e6565b9150509250929050565b60008060006060848603121561290957612908612645565b5b60006129178682870161289b565b93505060206129288682870161289b565b9250506040612939868287016127e6565b9150509250925092565b60006020828403121561295957612958612645565b5b60006129678482850161289b565b91505092915050565b600061297b82612848565b9050919050565b61298b81612970565b811461299657600080fd5b50565b6000813590506129a881612982565b92915050565b6000602082840312156129c4576129c3612645565b5b60006129d284828501612999565b91505092915050565b6129e4816127c5565b82525050565b60006020820190506129ff60008301846129db565b92915050565b600080fd5b600080fd5b7f4e487b7100000000000000000000000000000000000000000000000000000000600052604160045260246000fd5b612a4782612759565b810181811067ffffffffffffffff82111715612a6657612a65612a0f565b5b80604052505050565b6000612a7961263b565b9050612a858282612a3e565b919050565b600067ffffffffffffffff821115612aa557612aa4612a0f565b5b612aae82612759565b9050602081019050919050565b82818337600083830152505050565b6000612add612ad884612a8a565b612a6f565b905082815260208101848484011115612af957612af8612a0a565b5b612b04848285612abb565b509392505050565b600082601f830112612b2157612b20612a05565b5b8135612b31848260208601612aca565b91505092915050565b60008060408385031215612b5157612b50612645565b5b6000612b5f8582860161289b565b925050602083013567ffffffffffffffff811115612b8057612b7f61264a565b5b612b8c85828601612b0c565b9150509250929050565b612b9f816126d4565b8114612baa57600080fd5b50565b600081359050612bbc81612b96565b92915050565b60008060408385031215612bd957612bd8612645565b5b6000612be78582860161289b565b9250506020612bf885828601612bad565b9150509250929050565b60008060008060808587031215612c1c57612c1b612645565b5b6000612c2a8782880161289b565b9450506020612c3b8782880161289b565b9350506040612c4c878288016127e6565b925050606085013567ffffffffffffffff811115612c6d57612c6c61264a565b5b612c7987828801612b0c565b91505092959194509250565b60008060408385031215612c9c57612c9b612645565b5b6000612caa8582860161289b565b9250506020612cbb8582860161289b565b9150509250929050565b600067ffffffffffffffff821115612ce057612cdf612a0f565b5b612ce982612759565b9050602081019050919050565b6000612d09612d0484612cc5565b612a6f565b905082815260208101848484011115612d2557612d24612a0a565b5b612d30848285612abb565b509392505050565b600082601f830112612d4d57612d4c612a05565b5b8135612d5d848260208601612cf6565b91505092915050565b600060208284031215612d7c57612d7b612645565b5b600082013567ffffffffffffffff811115612d9a57612d9961264a565b5b612da684828501612d38565b91505092915050565b7f4e487b7100000000000000000000000000000000000000000000000000000000600052602260045260246000fd5b60006002820490506001821680612df657607f821691505b60208210811415612e0a57612e09612daf565b5b50919050565b7f4e4f545f415554484f52495a4544000000000000000000000000000000000000600082015250565b6000612e46600e83612715565b9150612e5182612e10565b602082019050919050565b60006020820190508181036000830152612e7581612e39565b9050919050565b7f57524f4e475f46524f4d00000000000000000000000000000000000000000000600082015250565b6000612eb2600a83612715565b9150612ebd82612e7c565b602082019050919050565b60006020820190508181036000830152612ee181612ea5565b9050919050565b7f494e56414c49445f524543495049454e54000000000000000000000000000000600082015250565b6000612f1e601183612715565b9150612f2982612ee8565b602082019050919050565b60006020820190508181036000830152612f4d81612f11565b9050919050565b7f4f776e61626c653a2063616c6c6572206973206e6f7420746865206f776e6572600082015250565b6000612f8a602083612715565b9150612f9582612f54565b602082019050919050565b60006020820190508181036000830152612fb981612f7d565b9050919050565b600081519050612fcf816127cf565b92915050565b600060208284031215612feb57612fea612645565b5b6000612ff984828501612fc0565b91505092915050565b600060408201905061301760008301856129db565b61302460208301846129db565b9392505050565b7f4e487b7100000000000000000000000000000000000000000000000000000000600052601160045260246000fd5b6000613065826127c5565b91507fffffffffffffffffffffffffffffffffffffffffffffffffffffffffffffffff8214156130985761309761302b565b5b600182019050919050565b600082825260208201905092915050565b50565b60006130c46000836130a3565b91506130cf826130b4565b600082019050919050565b60006080820190506130ef600083018661285a565b6130fc602083018561285a565b61310960408301846129db565b818103606083015261311a816130b7565b9050949350505050565b6000815190506131338161267b565b92915050565b60006020828403121561314f5761314e612645565b5b600061315d84828501613124565b91505092915050565b7f554e534146455f524543495049454e5400000000000000000000000000000000600082015250565b600061319c601083612715565b91506131a782613166565b602082019050919050565b600060208201905081810360008301526131cb8161318f565b9050919050565b60006040820190506131e7600083018561285a565b6131f460208301846129db565b9392505050565b60008151905061320a81612b96565b92915050565b60006020828403121561322657613225612645565b5b6000613234848285016131fb565b91505092915050565b600081519050919050565b60006132538261323d565b61325d81856130a3565b935061326d818560208601612726565b61327681612759565b840191505092915050565b6000608082019050613296600083018761285a565b6132a3602083018661285a565b6132b060408301856129db565b81810360608301526132c28184613248565b905095945050505050565b7f4f776e61626c653a206e6577206f776e657220697320746865207a65726f206160008201527f6464726573730000000000000000000000000000000000000000000000000000602082015250565b6000613329602683612715565b9150613334826132cd565b604082019050919050565b600060208201905081810360008301526133588161331c565b9050919050565b7f4e4f545f4d494e54454400000000000000000000000000000000000000000000600082015250565b6000613395600a83612715565b91506133a08261335f565b602082019050919050565b600060208201905081810360008301526133c481613388565b9050919050565b7f414c52454144595f4d494e544544000000000000000000000000000000000000600082015250565b6000613401600e83612715565b915061340c826133cb565b602082019050919050565b60006020820190508181036000830152613430816133f4565b905091905056fea26469706673582212202fc168c02594ba6c9553b2aafffbd3f83b7c7664b6aeed23af2b5e8e9beebfb264736f6c634300080b0033",
  "linkReferences": {},
  "deployedLinkReferences": {}
}