{
  "_format": "hh-sol-artifact-1",
  "contractName": "TuringKey",
  "sourceName": "contracts/TuringKey.sol",
  "abi": [
    {
      "inputs": [
        {
          "internalType": "string",
          "name": "_tokenURI",
          "type": "string"
        },
        {
          "internalType": "contract IBottoStaking",
          "name": "_bottoStaking",
          "type": "address"
        }
      ],
      "stateMutability": "nonpayable",
      "type": "constructor"
    },
    {
      "inputs": [
        {
          "internalType": "uint256",
          "name": "cost",
          "type": "uint256"
        },
        {
          "internalType": "uint256",
          "name": "sent",
          "type": "uint256"
        }
      ],
      "name": "InsufficientFunds",
      "type": "error"
    },
    {
      "inputs": [],
      "name": "InsufficientTokensRemain",
      "type": "error"
    },
    {
      "inputs": [
        {
          "internalType": "uint256",
          "name": "balance",
          "type": "uint256"
        },
        {
          "internalType": "uint8",
          "name": "limit",
          "type": "uint8"
        }
      ],
      "name": "SenderBalanceOverTokenLimit",
      "type": "error"
    },
    {
      "inputs": [
        {
          "internalType": "uint256",
          "name": "supply",
          "type": "uint256"
        },
        {
          "internalType": "uint256",
          "name": "absoluteMaximumTokens",
          "type": "uint256"
        }
      ],
      "name": "SupplyHigherThanAbsoluteMaximumTokens",
      "type": "error"
    },
    {
      "inputs": [
        {
          "internalType": "uint256",
          "name": "supply",
          "type": "uint256"
        },
        {
          "internalType": "uint256",
          "name": "tokenCount",
          "type": "uint256"
        }
      ],
      "name": "SupplyLowerThanTokenCount",
      "type": "error"
    },
    {
      "inputs": [
        {
          "internalType": "address",
          "name": "user",
          "type": "address"
        }
      ],
      "name": "UserIsNotAStaker",
      "type": "error"
    },
    {
      "anonymous": false,
      "inputs": [
        {
          "indexed": true,
          "internalType": "address",
          "name": "owner",
          "type": "address"
        },
        {
          "indexed": true,
          "internalType": "address",
          "name": "spender",
          "type": "address"
        },
        {
          "indexed": true,
          "internalType": "uint256",
          "name": "id",
          "type": "uint256"
        }
      ],
      "name": "Approval",
      "type": "event"
    },
    {
      "anonymous": false,
      "inputs": [
        {
          "indexed": true,
          "internalType": "address",
          "name": "owner",
          "type": "address"
        },
        {
          "indexed": true,
          "internalType": "address",
          "name": "operator",
          "type": "address"
        },
        {
          "indexed": false,
          "internalType": "bool",
          "name": "approved",
          "type": "bool"
        }
      ],
      "name": "ApprovalForAll",
      "type": "event"
    },
    {
      "anonymous": false,
      "inputs": [
        {
          "indexed": true,
          "internalType": "address",
          "name": "previousOwner",
          "type": "address"
        },
        {
          "indexed": true,
          "internalType": "address",
          "name": "newOwner",
          "type": "address"
        }
      ],
      "name": "OwnershipTransferred",
      "type": "event"
    },
    {
      "anonymous": false,
      "inputs": [
        {
          "indexed": true,
          "internalType": "address",
          "name": "from",
          "type": "address"
        },
        {
          "indexed": true,
          "internalType": "address",
          "name": "to",
          "type": "address"
        },
        {
          "indexed": true,
          "internalType": "uint256",
          "name": "id",
          "type": "uint256"
        }
      ],
      "name": "Transfer",
      "type": "event"
    },
    {
      "inputs": [],
      "name": "ABSOLUTE_MAXIMUM_TOKENS",
      "outputs": [
        {
          "internalType": "uint256",
          "name": "",
          "type": "uint256"
        }
      ],
      "stateMutability": "view",
      "type": "function"
    },
    {
      "inputs": [],
      "name": "HOLDER_TOKEN_LIMIT",
      "outputs": [
        {
          "internalType": "uint8",
          "name": "",
          "type": "uint8"
        }
      ],
      "stateMutability": "view",
      "type": "function"
    },
    {
      "inputs": [
        {
          "internalType": "address",
          "name": "spender",
          "type": "address"
        },
        {
          "internalType": "uint256",
          "name": "id",
          "type": "uint256"
        }
      ],
      "name": "approve",
      "outputs": [],
      "stateMutability": "nonpayable",
      "type": "function"
    },
    {
      "inputs": [
        {
          "internalType": "address",
          "name": "",
          "type": "address"
        }
      ],
      "name": "balanceOf",
      "outputs": [
        {
          "internalType": "uint256",
          "name": "",
          "type": "uint256"
        }
      ],
      "stateMutability": "view",
      "type": "function"
    },
    {
      "inputs": [
        {
          "internalType": "uint256",
          "name": "tokenId",
          "type": "uint256"
        }
      ],
      "name": "burn",
      "outputs": [],
      "stateMutability": "nonpayable",
      "type": "function"
    },
    {
      "inputs": [],
      "name": "currentSupply",
      "outputs": [
        {
          "internalType": "uint256",
          "name": "",
          "type": "uint256"
        }
      ],
      "stateMutability": "view",
      "type": "function"
    },
    {
      "inputs": [
        {
          "internalType": "uint256",
          "name": "",
          "type": "uint256"
        }
      ],
      "name": "getApproved",
      "outputs": [
        {
          "internalType": "address",
          "name": "",
          "type": "address"
        }
      ],
      "stateMutability": "view",
      "type": "function"
    },
    {
      "inputs": [
        {
          "internalType": "address",
          "name": "",
          "type": "address"
        },
        {
          "internalType": "address",
          "name": "",
          "type": "address"
        }
      ],
      "name": "isApprovedForAll",
      "outputs": [
        {
          "internalType": "bool",
          "name": "",
          "type": "bool"
        }
      ],
      "stateMutability": "view",
      "type": "function"
    },
    {
      "inputs": [
        {
          "internalType": "address",
          "name": "to",
          "type": "address"
        },
        {
          "internalType": "uint8",
          "name": "amount",
          "type": "uint8"
        }
      ],
      "name": "mint",
      "outputs": [],
      "stateMutability": "payable",
      "type": "function"
    },
    {
      "inputs": [],
      "name": "name",
      "outputs": [
        {
          "internalType": "string",
          "name": "",
          "type": "string"
        }
      ],
      "stateMutability": "view",
      "type": "function"
    },
    {
      "inputs": [],
      "name": "owner",
      "outputs": [
        {
          "internalType": "address",
          "name": "",
          "type": "address"
        }
      ],
      "stateMutability": "view",
      "type": "function"
    },
    {
      "inputs": [
        {
          "internalType": "uint256",
          "name": "",
          "type": "uint256"
        }
      ],
      "name": "ownerOf",
      "outputs": [
        {
          "internalType": "address",
          "name": "",
          "type": "address"
        }
      ],
      "stateMutability": "view",
      "type": "function"
    },
    {
      "inputs": [],
      "name": "publicSalePrice",
      "outputs": [
        {
          "internalType": "uint256",
          "name": "",
          "type": "uint256"
        }
      ],
      "stateMutability": "view",
      "type": "function"
    },
    {
      "inputs": [],
      "name": "renounceOwnership",
      "outputs": [],
      "stateMutability": "nonpayable",
      "type": "function"
    },
    {
      "inputs": [
        {
          "internalType": "address",
          "name": "to",
          "type": "address"
        },
        {
          "internalType": "uint8",
          "name": "amount",
          "type": "uint8"
        }
      ],
      "name": "safeMint",
      "outputs": [],
      "stateMutability": "payable",
      "type": "function"
    },
    {
      "inputs": [
        {
          "internalType": "address",
          "name": "to",
          "type": "address"
        },
        {
          "internalType": "bytes",
          "name": "data",
          "type": "bytes"
        }
      ],
      "name": "safeMint",
      "outputs": [],
      "stateMutability": "payable",
      "type": "function"
    },
    {
      "inputs": [
        {
          "internalType": "address",
          "name": "from",
          "type": "address"
        },
        {
          "internalType": "address",
          "name": "to",
          "type": "address"
        },
        {
          "internalType": "uint256",
          "name": "id",
          "type": "uint256"
        }
      ],
      "name": "safeTransferFrom",
      "outputs": [],
      "stateMutability": "nonpayable",
      "type": "function"
    },
    {
      "inputs": [
        {
          "internalType": "address",
          "name": "from",
          "type": "address"
        },
        {
          "internalType": "address",
          "name": "to",
          "type": "address"
        },
        {
          "internalType": "uint256",
          "name": "id",
          "type": "uint256"
        },
        {
          "internalType": "bytes",
          "name": "data",
          "type": "bytes"
        }
      ],
      "name": "safeTransferFrom",
      "outputs": [],
      "stateMutability": "nonpayable",
      "type": "function"
    },
    {
      "inputs": [
        {
          "internalType": "address",
          "name": "operator",
          "type": "address"
        },
        {
          "internalType": "bool",
          "name": "approved",
          "type": "bool"
        }
      ],
      "name": "setApprovalForAll",
      "outputs": [],
      "stateMutability": "nonpayable",
      "type": "function"
    },
    {
      "inputs": [
        {
          "internalType": "string",
          "name": "_internalTokenURI",
          "type": "string"
        }
      ],
      "name": "setInternalTokenURI",
      "outputs": [],
      "stateMutability": "nonpayable",
      "type": "function"
    },
    {
      "inputs": [
        {
          "internalType": "uint256",
          "name": "_publicSalePrice",
          "type": "uint256"
        }
      ],
      "name": "setPublicSalePrice",
      "outputs": [],
      "stateMutability": "nonpayable",
      "type": "function"
    },
    {
      "inputs": [
        {
          "internalType": "bytes4",
          "name": "interfaceId",
          "type": "bytes4"
        }
      ],
      "name": "supportsInterface",
      "outputs": [
        {
          "internalType": "bool",
          "name": "",
          "type": "bool"
        }
      ],
      "stateMutability": "pure",
      "type": "function"
    },
    {
      "inputs": [],
      "name": "symbol",
      "outputs": [
        {
          "internalType": "string",
          "name": "",
          "type": "string"
        }
      ],
      "stateMutability": "view",
      "type": "function"
    },
    {
      "inputs": [],
      "name": "timelock",
      "outputs": [
        {
          "internalType": "uint256",
          "name": "",
          "type": "uint256"
        }
      ],
      "stateMutability": "view",
      "type": "function"
    },
    {
      "inputs": [],
      "name": "tokenCount",
      "outputs": [
        {
          "internalType": "uint256",
          "name": "",
          "type": "uint256"
        }
      ],
      "stateMutability": "view",
      "type": "function"
    },
    {
      "inputs": [
        {
          "internalType": "uint256",
          "name": "tokenId",
          "type": "uint256"
        }
      ],
      "name": "tokenURI",
      "outputs": [
        {
          "internalType": "string",
          "name": "",
          "type": "string"
        }
      ],
      "stateMutability": "view",
      "type": "function"
    },
    {
      "inputs": [
        {
          "internalType": "address",
          "name": "from",
          "type": "address"
        },
        {
          "internalType": "address",
          "name": "to",
          "type": "address"
        },
        {
          "internalType": "uint256",
          "name": "id",
          "type": "uint256"
        }
      ],
      "name": "transferFrom",
      "outputs": [],
      "stateMutability": "nonpayable",
      "type": "function"
    },
    {
      "inputs": [
        {
          "internalType": "address",
          "name": "newOwner",
          "type": "address"
        }
      ],
      "name": "transferOwnership",
      "outputs": [],
      "stateMutability": "nonpayable",
      "type": "function"
    },
    {
      "inputs": [
        {
          "internalType": "uint256",
          "name": "_supply",
          "type": "uint256"
        }
      ],
      "name": "updateCurrentSupply",
      "outputs": [],
      "stateMutability": "nonpayable",
      "type": "function"
    },
    {
      "inputs": [],
      "name": "withdraw",
      "outputs": [],
      "stateMutability": "nonpayable",
      "type": "function"
    },
    {
      "inputs": [
        {
          "internalType": "contract IERC20",
          "name": "token",
          "type": "address"
        }
      ],
      "name": "withdrawTokens",
      "outputs": [],
      "stateMutability": "nonpayable",
      "type": "function"
    }
  ],
  "bytecode": "0x608060405260c8600b556706f05b59d3b20000600c553480156200002257600080fd5b506040516200405438038062004054833981810160405281019062000048919062000515565b6040518060400160405280600a81526020017f547572696e67204b6579000000000000000000000000000000000000000000008152506040518060400160405280600481526020017f544b4559000000000000000000000000000000000000000000000000000000008152508160009080519060200190620000cc9291906200024f565b508060019080519060200190620000e59291906200024f565b50505062000108620000fc6200018160201b60201c565b6200018960201b60201c565b8160099080519060200190620001209291906200024f565b5080600760006101000a81548173ffffffffffffffffffffffffffffffffffffffff021916908373ffffffffffffffffffffffffffffffffffffffff1602179055506202a30042620001739190620005b4565b600881905550505062000676565b600033905090565b6000600660009054906101000a900473ffffffffffffffffffffffffffffffffffffffff16905081600660006101000a81548173ffffffffffffffffffffffffffffffffffffffff021916908373ffffffffffffffffffffffffffffffffffffffff1602179055508173ffffffffffffffffffffffffffffffffffffffff168173ffffffffffffffffffffffffffffffffffffffff167f8be0079c531659141344cd1fd0a4f28419497f9722a3daafe3b4186f6b6457e060405160405180910390a35050565b8280546200025d9062000640565b90600052602060002090601f016020900481019282620002815760008555620002cd565b82601f106200029c57805160ff1916838001178555620002cd565b82800160010185558215620002cd579182015b82811115620002cc578251825591602001919060010190620002af565b5b509050620002dc9190620002e0565b5090565b5b80821115620002fb576000816000905550600101620002e1565b5090565b6000604051905090565b600080fd5b600080fd5b600080fd5b600080fd5b6000601f19601f8301169050919050565b7f4e487b7100000000000000000000000000000000000000000000000000000000600052604160045260246000fd5b62000368826200031d565b810181811067ffffffffffffffff821117156200038a57620003896200032e565b5b80604052505050565b60006200039f620002ff565b9050620003ad82826200035d565b919050565b600067ffffffffffffffff821115620003d057620003cf6200032e565b5b620003db826200031d565b9050602081019050919050565b60005b8381101562000408578082015181840152602081019050620003eb565b8381111562000418576000848401525b50505050565b6000620004356200042f84620003b2565b62000393565b90508281526020810184848401111562000454576200045362000318565b5b62000461848285620003e8565b509392505050565b600082601f83011262000481576200048062000313565b5b8151620004938482602086016200041e565b91505092915050565b600073ffffffffffffffffffffffffffffffffffffffff82169050919050565b6000620004c9826200049c565b9050919050565b6000620004dd82620004bc565b9050919050565b620004ef81620004d0565b8114620004fb57600080fd5b50565b6000815190506200050f81620004e4565b92915050565b600080604083850312156200052f576200052e62000309565b5b600083015167ffffffffffffffff81111562000550576200054f6200030e565b5b6200055e8582860162000469565b92505060206200057185828601620004fe565b9150509250929050565b6000819050919050565b7f4e487b7100000000000000000000000000000000000000000000000000000000600052601160045260246000fd5b6000620005c1826200057b565b9150620005ce836200057b565b9250827fffffffffffffffffffffffffffffffffffffffffffffffffffffffffffffffff0382111562000606576200060562000585565b5b828201905092915050565b7f4e487b7100000000000000000000000000000000000000000000000000000000600052602260045260246000fd5b600060028204905060018216806200065957607f821691505b6020821081141562000670576200066f62000611565b5b50919050565b6139ce80620006866000396000f3fe6080604052600436106101d85760003560e01c8063771282f611610102578063a22cb46511610095578063d33219b411610064578063d33219b414610659578063e985e9c514610684578063f2fde38b146106c1578063fb980a9c146106ea576101d8565b8063a22cb4651461059f578063b88d4fde146105c8578063c87b56dd146105f1578063cb70db9e1461062e576101d8565b806395d89b41116100d157806395d89b41146104f35780639b6860c81461051e5780639d5fa571146105495780639f181b5e14610574576101d8565b8063771282f614610458578063785bb03e14610483578063791a25191461049f5780638da5cb5b146104c8576101d8565b806342966c681161017a578063691562a011610149578063691562a0146103cc57806370a08231146103e8578063715018a614610425578063761c4c401461043c576101d8565b806342966c681461031457806349df728c1461033d578063577255de146103665780636352211e1461038f576101d8565b8063095ea7b3116101b6578063095ea7b31461028257806323b872dd146102ab5780633ccfd60b146102d457806342842e0e146102eb576101d8565b806301ffc9a7146101dd57806306fdde031461021a578063081812fc14610245575b600080fd5b3480156101e957600080fd5b5061020460048036038101906101ff9190612a62565b610713565b6040516102119190612aaa565b60405180910390f35b34801561022657600080fd5b5061022f6107a5565b60405161023c9190612b5e565b60405180910390f35b34801561025157600080fd5b5061026c60048036038101906102679190612bb6565b610833565b6040516102799190612c24565b60405180910390f35b34801561028e57600080fd5b506102a960048036038101906102a49190612c6b565b610866565b005b3480156102b757600080fd5b506102d260048036038101906102cd9190612cab565b610a4f565b005b3480156102e057600080fd5b506102e9610e4f565b005b3480156102f757600080fd5b50610312600480360381019061030d9190612cab565b610f1a565b005b34801561032057600080fd5b5061033b60048036038101906103369190612bb6565b611052565b005b34801561034957600080fd5b50610364600480360381019061035f9190612d3c565b61105e565b005b34801561037257600080fd5b5061038d60048036038101906103889190612bb6565b6111db565b005b34801561039b57600080fd5b506103b660048036038101906103b19190612bb6565b6112f7565b6040516103c39190612c24565b60405180910390f35b6103e660048036038101906103e19190612da2565b61132a565b005b3480156103f457600080fd5b5061040f600480360381019061040a9190612de2565b6115fd565b60405161041c9190612e1e565b60405180910390f35b34801561043157600080fd5b5061043a611615565b005b61045660048036038101906104519190612da2565b61169d565b005b34801561046457600080fd5b5061046d611970565b60405161047a9190612e1e565b60405180910390f35b61049d60048036038101906104989190612f6e565b611976565b005b3480156104ab57600080fd5b506104c660048036038101906104c19190612bb6565b611c26565b005b3480156104d457600080fd5b506104dd611cac565b6040516104ea9190612c24565b60405180910390f35b3480156104ff57600080fd5b50610508611cd6565b6040516105159190612b5e565b60405180910390f35b34801561052a57600080fd5b50610533611d64565b6040516105409190612e1e565b60405180910390f35b34801561055557600080fd5b5061055e611d6a565b60405161056b9190612fd9565b60405180910390f35b34801561058057600080fd5b50610589611d6f565b6040516105969190612e1e565b60405180910390f35b3480156105ab57600080fd5b506105c660048036038101906105c19190613020565b611d75565b005b3480156105d457600080fd5b506105ef60048036038101906105ea9190613060565b611e72565b005b3480156105fd57600080fd5b5061061860048036038101906106139190612bb6565b611fad565b6040516106259190612b5e565b60405180910390f35b34801561063a57600080fd5b50610643612041565b6040516106509190612e1e565b60405180910390f35b34801561066557600080fd5b5061066e612047565b60405161067b9190612e1e565b60405180910390f35b34801561069057600080fd5b506106ab60048036038101906106a691906130e3565b61204d565b6040516106b89190612aaa565b60405180910390f35b3480156106cd57600080fd5b506106e860048036038101906106e39190612de2565b61207c565b005b3480156106f657600080fd5b50610711600480360381019061070c91906131c4565b612174565b005b60006301ffc9a760e01b827bffffffffffffffffffffffffffffffffffffffffffffffffffffffff1916148061076e57506380ac58cd60e01b827bffffffffffffffffffffffffffffffffffffffffffffffffffffffff1916145b8061079e5750635b5e139f60e01b827bffffffffffffffffffffffffffffffffffffffffffffffffffffffff1916145b9050919050565b600080546107b29061323c565b80601f01602080910402602001604051908101604052809291908181526020018280546107de9061323c565b801561082b5780601f106108005761010080835404028352916020019161082b565b820191906000526020600020905b81548152906001019060200180831161080e57829003601f168201915b505050505081565b60046020528060005260406000206000915054906101000a900473ffffffffffffffffffffffffffffffffffffffff1681565b60006003600083815260200190815260200160002060009054906101000a900473ffffffffffffffffffffffffffffffffffffffff1690508073ffffffffffffffffffffffffffffffffffffffff163373ffffffffffffffffffffffffffffffffffffffff16148061095e5750600560008273ffffffffffffffffffffffffffffffffffffffff1673ffffffffffffffffffffffffffffffffffffffff16815260200190815260200160002060003373ffffffffffffffffffffffffffffffffffffffff1673ffffffffffffffffffffffffffffffffffffffff16815260200190815260200160002060009054906101000a900460ff165b61099d576040517f08c379a0000000000000000000000000000000000000000000000000000000008152600401610994906132ba565b60405180910390fd5b826004600084815260200190815260200160002060006101000a81548173ffffffffffffffffffffffffffffffffffffffff021916908373ffffffffffffffffffffffffffffffffffffffff160217905550818373ffffffffffffffffffffffffffffffffffffffff168273ffffffffffffffffffffffffffffffffffffffff167f8c5be1e5ebec7d5bd14f71427d1e84f3dd0314c0f7b2291e5b200ac8c7c3b92560405160405180910390a4505050565b6003600082815260200190815260200160002060009054906101000a900473ffffffffffffffffffffffffffffffffffffffff1673ffffffffffffffffffffffffffffffffffffffff168373ffffffffffffffffffffffffffffffffffffffff1614610af0576040517f08c379a0000000000000000000000000000000000000000000000000000000008152600401610ae790613326565b60405180910390fd5b600073ffffffffffffffffffffffffffffffffffffffff168273ffffffffffffffffffffffffffffffffffffffff161415610b60576040517f08c379a0000000000000000000000000000000000000000000000000000000008152600401610b5790613392565b60405180910390fd5b8273ffffffffffffffffffffffffffffffffffffffff163373ffffffffffffffffffffffffffffffffffffffff161480610bf857506004600082815260200190815260200160002060009054906101000a900473ffffffffffffffffffffffffffffffffffffffff1673ffffffffffffffffffffffffffffffffffffffff163373ffffffffffffffffffffffffffffffffffffffff16145b80610c895750600560008473ffffffffffffffffffffffffffffffffffffffff1673ffffffffffffffffffffffffffffffffffffffff16815260200190815260200160002060003373ffffffffffffffffffffffffffffffffffffffff1673ffffffffffffffffffffffffffffffffffffffff16815260200190815260200160002060009054906101000a900460ff165b610cc8576040517f08c379a0000000000000000000000000000000000000000000000000000000008152600401610cbf906132ba565b60405180910390fd5b600260008473ffffffffffffffffffffffffffffffffffffffff1673ffffffffffffffffffffffffffffffffffffffff1681526020019081526020016000206000815480929190600190039190505550600260008373ffffffffffffffffffffffffffffffffffffffff1673ffffffffffffffffffffffffffffffffffffffff16815260200190815260200160002060008154809291906001019190505550816003600083815260200190815260200160002060006101000a81548173ffffffffffffffffffffffffffffffffffffffff021916908373ffffffffffffffffffffffffffffffffffffffff1602179055506004600082815260200190815260200160002060006101000a81549073ffffffffffffffffffffffffffffffffffffffff0219169055808273ffffffffffffffffffffffffffffffffffffffff168473ffffffffffffffffffffffffffffffffffffffff167fddf252ad1be2c89b69c2b068fc378daa952ba7f163c4a11628f55a4df523b3ef60405160405180910390a4505050565b610e5761220a565b73ffffffffffffffffffffffffffffffffffffffff16610e75611cac565b73ffffffffffffffffffffffffffffffffffffffff1614610ecb576040517f08c379a0000000000000000000000000000000000000000000000000000000008152600401610ec2906133fe565b60405180910390fd5b60004790503373ffffffffffffffffffffffffffffffffffffffff166108fc829081150290604051600060405180830381858888f19350505050158015610f16573d6000803e3d6000fd5b5050565b610f25838383610a4f565b60008273ffffffffffffffffffffffffffffffffffffffff163b148061100e575063150b7a0260e01b7bffffffffffffffffffffffffffffffffffffffffffffffffffffffff19168273ffffffffffffffffffffffffffffffffffffffff1663150b7a023386856040518463ffffffff1660e01b8152600401610faa93929190613455565b6020604051808303816000875af1158015610fc9573d6000803e3d6000fd5b505050506040513d601f19601f82011682018060405250810190610fed91906134b4565b7bffffffffffffffffffffffffffffffffffffffffffffffffffffffff1916145b61104d576040517f08c379a00000000000000000000000000000000000000000000000000000000081526004016110449061352d565b60405180910390fd5b505050565b61105b81612212565b50565b61106661220a565b73ffffffffffffffffffffffffffffffffffffffff16611084611cac565b73ffffffffffffffffffffffffffffffffffffffff16146110da576040517f08c379a00000000000000000000000000000000000000000000000000000000081526004016110d1906133fe565b60405180910390fd5b60008173ffffffffffffffffffffffffffffffffffffffff166370a08231306040518263ffffffff1660e01b81526004016111159190612c24565b602060405180830381865afa158015611132573d6000803e3d6000fd5b505050506040513d601f19601f820116820180604052508101906111569190613562565b90508173ffffffffffffffffffffffffffffffffffffffff1663a9059cbb33836040518363ffffffff1660e01b815260040161119392919061358f565b6020604051808303816000875af11580156111b2573d6000803e3d6000fd5b505050506040513d601f19601f820116820180604052508101906111d691906135cd565b505050565b6111e361220a565b73ffffffffffffffffffffffffffffffffffffffff16611201611cac565b73ffffffffffffffffffffffffffffffffffffffff1614611257576040517f08c379a000000000000000000000000000000000000000000000000000000000815260040161124e906133fe565b60405180910390fd5b6103c98111156112a257806103c96040517f662442710000000000000000000000000000000000000000000000000000000081526004016112999291906135fa565b60405180910390fd5b600a548110156112ed5780600a546040517fbfc5a5940000000000000000000000000000000000000000000000000000000081526004016112e49291906135fa565b60405180910390fd5b80600b8190555050565b60036020528060005260406000206000915054906101000a900473ffffffffffffffffffffffffffffffffffffffff1681565b80600854421015611417576000600760009054906101000a900473ffffffffffffffffffffffffffffffffffffffff1673ffffffffffffffffffffffffffffffffffffffff16638da7ad23336040518263ffffffff1660e01b81526004016113929190612c24565b602060405180830381865afa1580156113af573d6000803e3d6000fd5b505050506040513d601f19601f820116820180604052508101906113d39190613562565b141561141657336040517f901a767e00000000000000000000000000000000000000000000000000000000815260040161140d9190612c24565b60405180910390fd5b5b600b548160ff16600a5461142b9190613652565b10611462576040517fa2a40cc400000000000000000000000000000000000000000000000000000000815260040160405180910390fd5b348160ff16600c5461147491906136a8565b11156114c9578060ff16600c5461148b91906136a8565b346040517f03eb8b540000000000000000000000000000000000000000000000000000000081526004016114c09291906135fa565b60405180910390fd5b600a60ff168160ff16600260003373ffffffffffffffffffffffffffffffffffffffff1673ffffffffffffffffffffffffffffffffffffffff1681526020019081526020016000205461151c9190613652565b11156115af578060ff16600260003373ffffffffffffffffffffffffffffffffffffffff1673ffffffffffffffffffffffffffffffffffffffff168152602001908152602001600020546115709190613652565b600a6040517fc9cf6a000000000000000000000000000000000000000000000000000000000081526004016115a6929190613702565b60405180910390fd5b60005b8260ff168160ff1610156115f757600a60008154809291906115d39061372b565b91905055506115e484600a54612409565b80806115ef90613774565b9150506115b2565b50505050565b60026020528060005260406000206000915090505481565b61161d61220a565b73ffffffffffffffffffffffffffffffffffffffff1661163b611cac565b73ffffffffffffffffffffffffffffffffffffffff1614611691576040517f08c379a0000000000000000000000000000000000000000000000000000000008152600401611688906133fe565b60405180910390fd5b61169b600061261c565b565b8060085442101561178a576000600760009054906101000a900473ffffffffffffffffffffffffffffffffffffffff1673ffffffffffffffffffffffffffffffffffffffff16638da7ad23336040518263ffffffff1660e01b81526004016117059190612c24565b602060405180830381865afa158015611722573d6000803e3d6000fd5b505050506040513d601f19601f820116820180604052508101906117469190613562565b141561178957336040517f901a767e0000000000000000000000000000000000000000000000000000000081526004016117809190612c24565b60405180910390fd5b5b600b548160ff16600a5461179e9190613652565b106117d5576040517fa2a40cc400000000000000000000000000000000000000000000000000000000815260040160405180910390fd5b348160ff16600c546117e791906136a8565b111561183c578060ff16600c546117fe91906136a8565b346040517f03eb8b540000000000000000000000000000000000000000000000000000000081526004016118339291906135fa565b60405180910390fd5b600a60ff168160ff16600260003373ffffffffffffffffffffffffffffffffffffffff1673ffffffffffffffffffffffffffffffffffffffff1681526020019081526020016000205461188f9190613652565b1115611922578060ff16600260003373ffffffffffffffffffffffffffffffffffffffff1673ffffffffffffffffffffffffffffffffffffffff168152602001908152602001600020546118e39190613652565b600a6040517fc9cf6a00000000000000000000000000000000000000000000000000000000008152600401611919929190613702565b60405180910390fd5b60005b8260ff168160ff16101561196a57600a60008154809291906119469061372b565b919050555061195784600a546126e2565b808061196290613774565b915050611925565b50505050565b600b5481565b6001600854421015611a64576000600760009054906101000a900473ffffffffffffffffffffffffffffffffffffffff1673ffffffffffffffffffffffffffffffffffffffff16638da7ad23336040518263ffffffff1660e01b81526004016119df9190612c24565b602060405180830381865afa1580156119fc573d6000803e3d6000fd5b505050506040513d601f19601f82011682018060405250810190611a209190613562565b1415611a6357336040517f901a767e000000000000000000000000000000000000000000000000000000008152600401611a5a9190612c24565b60405180910390fd5b5b600b548160ff16600a54611a789190613652565b10611aaf576040517fa2a40cc400000000000000000000000000000000000000000000000000000000815260040160405180910390fd5b348160ff16600c54611ac191906136a8565b1115611b16578060ff16600c54611ad891906136a8565b346040517f03eb8b54000000000000000000000000000000000000000000000000000000008152600401611b0d9291906135fa565b60405180910390fd5b600a60ff168160ff16600260003373ffffffffffffffffffffffffffffffffffffffff1673ffffffffffffffffffffffffffffffffffffffff16815260200190815260200160002054611b699190613652565b1115611bfc578060ff16600260003373ffffffffffffffffffffffffffffffffffffffff1673ffffffffffffffffffffffffffffffffffffffff16815260200190815260200160002054611bbd9190613652565b600a6040517fc9cf6a00000000000000000000000000000000000000000000000000000000008152600401611bf3929190613702565b60405180910390fd5b600a6000815480929190611c0f9061372b565b9190505550611c2183600a5484612819565b505050565b611c2e61220a565b73ffffffffffffffffffffffffffffffffffffffff16611c4c611cac565b73ffffffffffffffffffffffffffffffffffffffff1614611ca2576040517f08c379a0000000000000000000000000000000000000000000000000000000008152600401611c99906133fe565b60405180910390fd5b80600c8190555050565b6000600660009054906101000a900473ffffffffffffffffffffffffffffffffffffffff16905090565b60018054611ce39061323c565b80601f0160208091040260200160405190810160405280929190818152602001828054611d0f9061323c565b8015611d5c5780601f10611d3157610100808354040283529160200191611d5c565b820191906000526020600020905b815481529060010190602001808311611d3f57829003601f168201915b505050505081565b600c5481565b600a81565b600a5481565b80600560003373ffffffffffffffffffffffffffffffffffffffff1673ffffffffffffffffffffffffffffffffffffffff16815260200190815260200160002060008473ffffffffffffffffffffffffffffffffffffffff1673ffffffffffffffffffffffffffffffffffffffff16815260200190815260200160002060006101000a81548160ff0219169083151502179055508173ffffffffffffffffffffffffffffffffffffffff163373ffffffffffffffffffffffffffffffffffffffff167f17307eab39ab6107e8899845ad3d59bd9653f200f220920489ca2b5937696c3183604051611e669190612aaa565b60405180910390a35050565b611e7d848484610a4f565b60008373ffffffffffffffffffffffffffffffffffffffff163b1480611f68575063150b7a0260e01b7bffffffffffffffffffffffffffffffffffffffffffffffffffffffff19168373ffffffffffffffffffffffffffffffffffffffff1663150b7a02338786866040518563ffffffff1660e01b8152600401611f0494939291906137e2565b6020604051808303816000875af1158015611f23573d6000803e3d6000fd5b505050506040513d601f19601f82011682018060405250810190611f4791906134b4565b7bffffffffffffffffffffffffffffffffffffffffffffffffffffffff1916145b611fa7576040517f08c379a0000000000000000000000000000000000000000000000000000000008152600401611f9e9061352d565b60405180910390fd5b50505050565b606060098054611fbc9061323c565b80601f0160208091040260200160405190810160405280929190818152602001828054611fe89061323c565b80156120355780601f1061200a57610100808354040283529160200191612035565b820191906000526020600020905b81548152906001019060200180831161201857829003601f168201915b50505050509050919050565b6103c981565b60085481565b60056020528160005260406000206020528060005260406000206000915091509054906101000a900460ff1681565b61208461220a565b73ffffffffffffffffffffffffffffffffffffffff166120a2611cac565b73ffffffffffffffffffffffffffffffffffffffff16146120f8576040517f08c379a00000000000000000000000000000000000000000000000000000000081526004016120ef906133fe565b60405180910390fd5b600073ffffffffffffffffffffffffffffffffffffffff168173ffffffffffffffffffffffffffffffffffffffff161415612168576040517f08c379a000000000000000000000000000000000000000000000000000000000815260040161215f906138a0565b60405180910390fd5b6121718161261c565b50565b61217c61220a565b73ffffffffffffffffffffffffffffffffffffffff1661219a611cac565b73ffffffffffffffffffffffffffffffffffffffff16146121f0576040517f08c379a00000000000000000000000000000000000000000000000000000000081526004016121e7906133fe565b60405180910390fd5b8060099080519060200190612206929190612953565b5050565b600033905090565b60006003600083815260200190815260200160002060009054906101000a900473ffffffffffffffffffffffffffffffffffffffff169050600073ffffffffffffffffffffffffffffffffffffffff166003600084815260200190815260200160002060009054906101000a900473ffffffffffffffffffffffffffffffffffffffff1673ffffffffffffffffffffffffffffffffffffffff1614156122ed576040517f08c379a00000000000000000000000000000000000000000000000000000000081526004016122e49061390c565b60405180910390fd5b600260008273ffffffffffffffffffffffffffffffffffffffff1673ffffffffffffffffffffffffffffffffffffffff16815260200190815260200160002060008154809291906001900391905055506003600083815260200190815260200160002060006101000a81549073ffffffffffffffffffffffffffffffffffffffff02191690556004600083815260200190815260200160002060006101000a81549073ffffffffffffffffffffffffffffffffffffffff021916905581600073ffffffffffffffffffffffffffffffffffffffff168273ffffffffffffffffffffffffffffffffffffffff167fddf252ad1be2c89b69c2b068fc378daa952ba7f163c4a11628f55a4df523b3ef60405160405180910390a45050565b600073ffffffffffffffffffffffffffffffffffffffff168273ffffffffffffffffffffffffffffffffffffffff161415612479576040517f08c379a000000000000000000000000000000000000000000000000000000000815260040161247090613392565b60405180910390fd5b600073ffffffffffffffffffffffffffffffffffffffff166003600083815260200190815260200160002060009054906101000a900473ffffffffffffffffffffffffffffffffffffffff1673ffffffffffffffffffffffffffffffffffffffff161461251b576040517f08c379a000000000000000000000000000000000000000000000000000000000815260040161251290613978565b60405180910390fd5b600260008373ffffffffffffffffffffffffffffffffffffffff1673ffffffffffffffffffffffffffffffffffffffff16815260200190815260200160002060008154809291906001019190505550816003600083815260200190815260200160002060006101000a81548173ffffffffffffffffffffffffffffffffffffffff021916908373ffffffffffffffffffffffffffffffffffffffff160217905550808273ffffffffffffffffffffffffffffffffffffffff16600073ffffffffffffffffffffffffffffffffffffffff167fddf252ad1be2c89b69c2b068fc378daa952ba7f163c4a11628f55a4df523b3ef60405160405180910390a45050565b6000600660009054906101000a900473ffffffffffffffffffffffffffffffffffffffff16905081600660006101000a81548173ffffffffffffffffffffffffffffffffffffffff021916908373ffffffffffffffffffffffffffffffffffffffff1602179055508173ffffffffffffffffffffffffffffffffffffffff168173ffffffffffffffffffffffffffffffffffffffff167f8be0079c531659141344cd1fd0a4f28419497f9722a3daafe3b4186f6b6457e060405160405180910390a35050565b6126ec8282612409565b60008273ffffffffffffffffffffffffffffffffffffffff163b14806127d6575063150b7a0260e01b7bffffffffffffffffffffffffffffffffffffffffffffffffffffffff19168273ffffffffffffffffffffffffffffffffffffffff1663150b7a02336000856040518463ffffffff1660e01b815260040161277293929190613455565b6020604051808303816000875af1158015612791573d6000803e3d6000fd5b505050506040513d601f19601f820116820180604052508101906127b591906134b4565b7bffffffffffffffffffffffffffffffffffffffffffffffffffffffff1916145b612815576040517f08c379a000000000000000000000000000000000000000000000000000000000815260040161280c9061352d565b60405180910390fd5b5050565b6128238383612409565b60008373ffffffffffffffffffffffffffffffffffffffff163b148061290f575063150b7a0260e01b7bffffffffffffffffffffffffffffffffffffffffffffffffffffffff19168373ffffffffffffffffffffffffffffffffffffffff1663150b7a0233600086866040518563ffffffff1660e01b81526004016128ab94939291906137e2565b6020604051808303816000875af11580156128ca573d6000803e3d6000fd5b505050506040513d601f19601f820116820180604052508101906128ee91906134b4565b7bffffffffffffffffffffffffffffffffffffffffffffffffffffffff1916145b61294e576040517f08c379a00000000000000000000000000000000000000000000000000000000081526004016129459061352d565b60405180910390fd5b505050565b82805461295f9061323c565b90600052602060002090601f01602090048101928261298157600085556129c8565b82601f1061299a57805160ff19168380011785556129c8565b828001600101855582156129c8579182015b828111156129c75782518255916020019190600101906129ac565b5b5090506129d591906129d9565b5090565b5b808211156129f25760008160009055506001016129da565b5090565b6000604051905090565b600080fd5b600080fd5b60007fffffffff0000000000000000000000000000000000000000000000000000000082169050919050565b612a3f81612a0a565b8114612a4a57600080fd5b50565b600081359050612a5c81612a36565b92915050565b600060208284031215612a7857612a77612a00565b5b6000612a8684828501612a4d565b91505092915050565b60008115159050919050565b612aa481612a8f565b82525050565b6000602082019050612abf6000830184612a9b565b92915050565b600081519050919050565b600082825260208201905092915050565b60005b83811015612aff578082015181840152602081019050612ae4565b83811115612b0e576000848401525b50505050565b6000601f19601f8301169050919050565b6000612b3082612ac5565b612b3a8185612ad0565b9350612b4a818560208601612ae1565b612b5381612b14565b840191505092915050565b60006020820190508181036000830152612b788184612b25565b905092915050565b6000819050919050565b612b9381612b80565b8114612b9e57600080fd5b50565b600081359050612bb081612b8a565b92915050565b600060208284031215612bcc57612bcb612a00565b5b6000612bda84828501612ba1565b91505092915050565b600073ffffffffffffffffffffffffffffffffffffffff82169050919050565b6000612c0e82612be3565b9050919050565b612c1e81612c03565b82525050565b6000602082019050612c396000830184612c15565b92915050565b612c4881612c03565b8114612c5357600080fd5b50565b600081359050612c6581612c3f565b92915050565b60008060408385031215612c8257612c81612a00565b5b6000612c9085828601612c56565b9250506020612ca185828601612ba1565b9150509250929050565b600080600060608486031215612cc457612cc3612a00565b5b6000612cd286828701612c56565b9350506020612ce386828701612c56565b9250506040612cf486828701612ba1565b9150509250925092565b6000612d0982612c03565b9050919050565b612d1981612cfe565b8114612d2457600080fd5b50565b600081359050612d3681612d10565b92915050565b600060208284031215612d5257612d51612a00565b5b6000612d6084828501612d27565b91505092915050565b600060ff82169050919050565b612d7f81612d69565b8114612d8a57600080fd5b50565b600081359050612d9c81612d76565b92915050565b60008060408385031215612db957612db8612a00565b5b6000612dc785828601612c56565b9250506020612dd885828601612d8d565b9150509250929050565b600060208284031215612df857612df7612a00565b5b6000612e0684828501612c56565b91505092915050565b612e1881612b80565b82525050565b6000602082019050612e336000830184612e0f565b92915050565b600080fd5b600080fd5b7f4e487b7100000000000000000000000000000000000000000000000000000000600052604160045260246000fd5b612e7b82612b14565b810181811067ffffffffffffffff82111715612e9a57612e99612e43565b5b80604052505050565b6000612ead6129f6565b9050612eb98282612e72565b919050565b600067ffffffffffffffff821115612ed957612ed8612e43565b5b612ee282612b14565b9050602081019050919050565b82818337600083830152505050565b6000612f11612f0c84612ebe565b612ea3565b905082815260208101848484011115612f2d57612f2c612e3e565b5b612f38848285612eef565b509392505050565b600082601f830112612f5557612f54612e39565b5b8135612f65848260208601612efe565b91505092915050565b60008060408385031215612f8557612f84612a00565b5b6000612f9385828601612c56565b925050602083013567ffffffffffffffff811115612fb457612fb3612a05565b5b612fc085828601612f40565b9150509250929050565b612fd381612d69565b82525050565b6000602082019050612fee6000830184612fca565b92915050565b612ffd81612a8f565b811461300857600080fd5b50565b60008135905061301a81612ff4565b92915050565b6000806040838503121561303757613036612a00565b5b600061304585828601612c56565b92505060206130568582860161300b565b9150509250929050565b6000806000806080858703121561307a57613079612a00565b5b600061308887828801612c56565b945050602061309987828801612c56565b93505060406130aa87828801612ba1565b925050606085013567ffffffffffffffff8111156130cb576130ca612a05565b5b6130d787828801612f40565b91505092959194509250565b600080604083850312156130fa576130f9612a00565b5b600061310885828601612c56565b925050602061311985828601612c56565b9150509250929050565b600067ffffffffffffffff82111561313e5761313d612e43565b5b61314782612b14565b9050602081019050919050565b600061316761316284613123565b612ea3565b90508281526020810184848401111561318357613182612e3e565b5b61318e848285612eef565b509392505050565b600082601f8301126131ab576131aa612e39565b5b81356131bb848260208601613154565b91505092915050565b6000602082840312156131da576131d9612a00565b5b600082013567ffffffffffffffff8111156131f8576131f7612a05565b5b61320484828501613196565b91505092915050565b7f4e487b7100000000000000000000000000000000000000000000000000000000600052602260045260246000fd5b6000600282049050600182168061325457607f821691505b602082108114156132685761326761320d565b5b50919050565b7f4e4f545f415554484f52495a4544000000000000000000000000000000000000600082015250565b60006132a4600e83612ad0565b91506132af8261326e565b602082019050919050565b600060208201905081810360008301526132d381613297565b9050919050565b7f57524f4e475f46524f4d00000000000000000000000000000000000000000000600082015250565b6000613310600a83612ad0565b915061331b826132da565b602082019050919050565b6000602082019050818103600083015261333f81613303565b9050919050565b7f494e56414c49445f524543495049454e54000000000000000000000000000000600082015250565b600061337c601183612ad0565b915061338782613346565b602082019050919050565b600060208201905081810360008301526133ab8161336f565b9050919050565b7f4f776e61626c653a2063616c6c6572206973206e6f7420746865206f776e6572600082015250565b60006133e8602083612ad0565b91506133f3826133b2565b602082019050919050565b60006020820190508181036000830152613417816133db565b9050919050565b600082825260208201905092915050565b50565b600061343f60008361341e565b915061344a8261342f565b600082019050919050565b600060808201905061346a6000830186612c15565b6134776020830185612c15565b6134846040830184612e0f565b818103606083015261349581613432565b9050949350505050565b6000815190506134ae81612a36565b92915050565b6000602082840312156134ca576134c9612a00565b5b60006134d88482850161349f565b91505092915050565b7f554e534146455f524543495049454e5400000000000000000000000000000000600082015250565b6000613517601083612ad0565b9150613522826134e1565b602082019050919050565b600060208201905081810360008301526135468161350a565b9050919050565b60008151905061355c81612b8a565b92915050565b60006020828403121561357857613577612a00565b5b60006135868482850161354d565b91505092915050565b60006040820190506135a46000830185612c15565b6135b16020830184612e0f565b9392505050565b6000815190506135c781612ff4565b92915050565b6000602082840312156135e3576135e2612a00565b5b60006135f1848285016135b8565b91505092915050565b600060408201905061360f6000830185612e0f565b61361c6020830184612e0f565b9392505050565b7f4e487b7100000000000000000000000000000000000000000000000000000000600052601160045260246000fd5b600061365d82612b80565b915061366883612b80565b9250827fffffffffffffffffffffffffffffffffffffffffffffffffffffffffffffffff0382111561369d5761369c613623565b5b828201905092915050565b60006136b382612b80565b91506136be83612b80565b9250817fffffffffffffffffffffffffffffffffffffffffffffffffffffffffffffffff04831182151516156136f7576136f6613623565b5b828202905092915050565b60006040820190506137176000830185612e0f565b6137246020830184612fca565b9392505050565b600061373682612b80565b91507fffffffffffffffffffffffffffffffffffffffffffffffffffffffffffffffff82141561376957613768613623565b5b600182019050919050565b600061377f82612d69565b915060ff82141561379357613792613623565b5b600182019050919050565b600081519050919050565b60006137b48261379e565b6137be818561341e565b93506137ce818560208601612ae1565b6137d781612b14565b840191505092915050565b60006080820190506137f76000830187612c15565b6138046020830186612c15565b6138116040830185612e0f565b818103606083015261382381846137a9565b905095945050505050565b7f4f776e61626c653a206e6577206f776e657220697320746865207a65726f206160008201527f6464726573730000000000000000000000000000000000000000000000000000602082015250565b600061388a602683612ad0565b91506138958261382e565b604082019050919050565b600060208201905081810360008301526138b98161387d565b9050919050565b7f4e4f545f4d494e54454400000000000000000000000000000000000000000000600082015250565b60006138f6600a83612ad0565b9150613901826138c0565b602082019050919050565b60006020820190508181036000830152613925816138e9565b9050919050565b7f414c52454144595f4d494e544544000000000000000000000000000000000000600082015250565b6000613962600e83612ad0565b915061396d8261392c565b602082019050919050565b6000602082019050818103600083015261399181613955565b905091905056fea26469706673582212203635663c5f1dc441ffc17dd9842d411fda8df193fed88453605ae6594dc71c1f64736f6c634300080b0033",
  "linkReferences": {},
  "deployedLinkReferences": {}
}