{
  "_format": "hh-sol-artifact-1",
  "contractName": "TuringKey",
  "sourceName": "contracts/TuringKey.sol",
  "abi": [
    {
      "inputs": [
        {
          "internalType": "string",
          "name": "_tokenURI",
          "type": "string"
        },
        {
          "internalType": "contract IBottoStaking",
          "name": "_bottoStaking",
          "type": "address"
        }
      ],
      "stateMutability": "nonpayable",
      "type": "constructor"
    },
    {
      "inputs": [
        {
          "internalType": "uint256",
          "name": "cost",
          "type": "uint256"
        },
        {
          "internalType": "uint256",
          "name": "sent",
          "type": "uint256"
        }
      ],
      "name": "InsufficientFunds",
      "type": "error"
    },
    {
      "inputs": [],
      "name": "InsufficientTokensRemain",
      "type": "error"
    },
    {
      "inputs": [
        {
          "internalType": "uint256",
          "name": "balance",
          "type": "uint256"
        },
        {
          "internalType": "uint8",
          "name": "limit",
          "type": "uint8"
        }
      ],
      "name": "SenderBalanceOverTokenLimit",
      "type": "error"
    },
    {
      "inputs": [
        {
          "internalType": "uint256",
          "name": "supply",
          "type": "uint256"
        },
        {
          "internalType": "uint256",
          "name": "absoluteMaximumTokens",
          "type": "uint256"
        }
      ],
      "name": "SupplyHigherThanAbsoluteMaximumTokens",
      "type": "error"
    },
    {
      "inputs": [
        {
          "internalType": "uint256",
          "name": "supply",
          "type": "uint256"
        },
        {
          "internalType": "uint256",
          "name": "tokenCount",
          "type": "uint256"
        }
      ],
      "name": "SupplyLowerThanTokenCount",
      "type": "error"
    },
    {
      "inputs": [
        {
          "internalType": "address",
          "name": "user",
          "type": "address"
        }
      ],
      "name": "UserIsNotAStaker",
      "type": "error"
    },
    {
      "anonymous": false,
      "inputs": [
        {
          "indexed": true,
          "internalType": "address",
          "name": "owner",
          "type": "address"
        },
        {
          "indexed": true,
          "internalType": "address",
          "name": "spender",
          "type": "address"
        },
        {
          "indexed": true,
          "internalType": "uint256",
          "name": "id",
          "type": "uint256"
        }
      ],
      "name": "Approval",
      "type": "event"
    },
    {
      "anonymous": false,
      "inputs": [
        {
          "indexed": true,
          "internalType": "address",
          "name": "owner",
          "type": "address"
        },
        {
          "indexed": true,
          "internalType": "address",
          "name": "operator",
          "type": "address"
        },
        {
          "indexed": false,
          "internalType": "bool",
          "name": "approved",
          "type": "bool"
        }
      ],
      "name": "ApprovalForAll",
      "type": "event"
    },
    {
      "anonymous": false,
      "inputs": [
        {
          "indexed": true,
          "internalType": "address",
          "name": "previousOwner",
          "type": "address"
        },
        {
          "indexed": true,
          "internalType": "address",
          "name": "newOwner",
          "type": "address"
        }
      ],
      "name": "OwnershipTransferred",
      "type": "event"
    },
    {
      "anonymous": false,
      "inputs": [
        {
          "indexed": true,
          "internalType": "address",
          "name": "from",
          "type": "address"
        },
        {
          "indexed": true,
          "internalType": "address",
          "name": "to",
          "type": "address"
        },
        {
          "indexed": true,
          "internalType": "uint256",
          "name": "id",
          "type": "uint256"
        }
      ],
      "name": "Transfer",
      "type": "event"
    },
    {
      "inputs": [],
      "name": "ABSOLUTE_MAXIMUM_TOKENS",
      "outputs": [
        {
          "internalType": "uint256",
          "name": "",
          "type": "uint256"
        }
      ],
      "stateMutability": "view",
      "type": "function"
    },
    {
      "inputs": [],
      "name": "HOLDER_TOKEN_LIMIT",
      "outputs": [
        {
          "internalType": "uint8",
          "name": "",
          "type": "uint8"
        }
      ],
      "stateMutability": "view",
      "type": "function"
    },
    {
      "inputs": [
        {
          "internalType": "address",
          "name": "spender",
          "type": "address"
        },
        {
          "internalType": "uint256",
          "name": "id",
          "type": "uint256"
        }
      ],
      "name": "approve",
      "outputs": [],
      "stateMutability": "nonpayable",
      "type": "function"
    },
    {
      "inputs": [
        {
          "internalType": "address",
          "name": "",
          "type": "address"
        }
      ],
      "name": "balanceOf",
      "outputs": [
        {
          "internalType": "uint256",
          "name": "",
          "type": "uint256"
        }
      ],
      "stateMutability": "view",
      "type": "function"
    },
    {
      "inputs": [
        {
          "internalType": "uint256",
          "name": "tokenId",
          "type": "uint256"
        }
      ],
      "name": "burn",
      "outputs": [],
      "stateMutability": "nonpayable",
      "type": "function"
    },
    {
      "inputs": [],
      "name": "currentSupply",
      "outputs": [
        {
          "internalType": "uint256",
          "name": "",
          "type": "uint256"
        }
      ],
      "stateMutability": "view",
      "type": "function"
    },
    {
      "inputs": [
        {
          "internalType": "uint256",
          "name": "",
          "type": "uint256"
        }
      ],
      "name": "getApproved",
      "outputs": [
        {
          "internalType": "address",
          "name": "",
          "type": "address"
        }
      ],
      "stateMutability": "view",
      "type": "function"
    },
    {
      "inputs": [
        {
          "internalType": "address",
          "name": "",
          "type": "address"
        },
        {
          "internalType": "address",
          "name": "",
          "type": "address"
        }
      ],
      "name": "isApprovedForAll",
      "outputs": [
        {
          "internalType": "bool",
          "name": "",
          "type": "bool"
        }
      ],
      "stateMutability": "view",
      "type": "function"
    },
    {
      "inputs": [
        {
          "internalType": "address",
          "name": "to",
          "type": "address"
        },
        {
          "internalType": "uint8",
          "name": "amount",
          "type": "uint8"
        }
      ],
      "name": "mint",
      "outputs": [],
      "stateMutability": "payable",
      "type": "function"
    },
    {
      "inputs": [],
      "name": "name",
      "outputs": [
        {
          "internalType": "string",
          "name": "",
          "type": "string"
        }
      ],
      "stateMutability": "view",
      "type": "function"
    },
    {
      "inputs": [],
      "name": "owner",
      "outputs": [
        {
          "internalType": "address",
          "name": "",
          "type": "address"
        }
      ],
      "stateMutability": "view",
      "type": "function"
    },
    {
      "inputs": [
        {
          "internalType": "uint256",
          "name": "",
          "type": "uint256"
        }
      ],
      "name": "ownerOf",
      "outputs": [
        {
          "internalType": "address",
          "name": "",
          "type": "address"
        }
      ],
      "stateMutability": "view",
      "type": "function"
    },
    {
      "inputs": [],
      "name": "publicSalePrice",
      "outputs": [
        {
          "internalType": "uint256",
          "name": "",
          "type": "uint256"
        }
      ],
      "stateMutability": "view",
      "type": "function"
    },
    {
      "inputs": [],
      "name": "renounceOwnership",
      "outputs": [],
      "stateMutability": "nonpayable",
      "type": "function"
    },
    {
      "inputs": [
        {
          "internalType": "address",
          "name": "to",
          "type": "address"
        },
        {
          "internalType": "uint8",
          "name": "amount",
          "type": "uint8"
        },
        {
          "internalType": "bytes",
          "name": "data",
          "type": "bytes"
        }
      ],
      "name": "safeMint",
      "outputs": [],
      "stateMutability": "payable",
      "type": "function"
    },
    {
      "inputs": [
        {
          "internalType": "address",
          "name": "to",
          "type": "address"
        },
        {
          "internalType": "uint8",
          "name": "amount",
          "type": "uint8"
        }
      ],
      "name": "safeMint",
      "outputs": [],
      "stateMutability": "payable",
      "type": "function"
    },
    {
      "inputs": [
        {
          "internalType": "address",
          "name": "from",
          "type": "address"
        },
        {
          "internalType": "address",
          "name": "to",
          "type": "address"
        },
        {
          "internalType": "uint256",
          "name": "id",
          "type": "uint256"
        }
      ],
      "name": "safeTransferFrom",
      "outputs": [],
      "stateMutability": "nonpayable",
      "type": "function"
    },
    {
      "inputs": [
        {
          "internalType": "address",
          "name": "from",
          "type": "address"
        },
        {
          "internalType": "address",
          "name": "to",
          "type": "address"
        },
        {
          "internalType": "uint256",
          "name": "id",
          "type": "uint256"
        },
        {
          "internalType": "bytes",
          "name": "data",
          "type": "bytes"
        }
      ],
      "name": "safeTransferFrom",
      "outputs": [],
      "stateMutability": "nonpayable",
      "type": "function"
    },
    {
      "inputs": [
        {
          "internalType": "address",
          "name": "operator",
          "type": "address"
        },
        {
          "internalType": "bool",
          "name": "approved",
          "type": "bool"
        }
      ],
      "name": "setApprovalForAll",
      "outputs": [],
      "stateMutability": "nonpayable",
      "type": "function"
    },
    {
      "inputs": [
        {
          "internalType": "string",
          "name": "_internalTokenURI",
          "type": "string"
        }
      ],
      "name": "setInternalTokenURI",
      "outputs": [],
      "stateMutability": "nonpayable",
      "type": "function"
    },
    {
      "inputs": [
        {
          "internalType": "uint256",
          "name": "_publicSalePrice",
          "type": "uint256"
        }
      ],
      "name": "setPublicSalePrice",
      "outputs": [],
      "stateMutability": "nonpayable",
      "type": "function"
    },
    {
      "inputs": [
        {
          "internalType": "bytes4",
          "name": "interfaceId",
          "type": "bytes4"
        }
      ],
      "name": "supportsInterface",
      "outputs": [
        {
          "internalType": "bool",
          "name": "",
          "type": "bool"
        }
      ],
      "stateMutability": "pure",
      "type": "function"
    },
    {
      "inputs": [],
      "name": "symbol",
      "outputs": [
        {
          "internalType": "string",
          "name": "",
          "type": "string"
        }
      ],
      "stateMutability": "view",
      "type": "function"
    },
    {
      "inputs": [],
      "name": "timelock",
      "outputs": [
        {
          "internalType": "uint256",
          "name": "",
          "type": "uint256"
        }
      ],
      "stateMutability": "view",
      "type": "function"
    },
    {
      "inputs": [],
      "name": "tokenCount",
      "outputs": [
        {
          "internalType": "uint256",
          "name": "",
          "type": "uint256"
        }
      ],
      "stateMutability": "view",
      "type": "function"
    },
    {
      "inputs": [
        {
          "internalType": "uint256",
          "name": "tokenId",
          "type": "uint256"
        }
      ],
      "name": "tokenURI",
      "outputs": [
        {
          "internalType": "string",
          "name": "",
          "type": "string"
        }
      ],
      "stateMutability": "view",
      "type": "function"
    },
    {
      "inputs": [
        {
          "internalType": "address",
          "name": "from",
          "type": "address"
        },
        {
          "internalType": "address",
          "name": "to",
          "type": "address"
        },
        {
          "internalType": "uint256",
          "name": "id",
          "type": "uint256"
        }
      ],
      "name": "transferFrom",
      "outputs": [],
      "stateMutability": "nonpayable",
      "type": "function"
    },
    {
      "inputs": [
        {
          "internalType": "address",
          "name": "newOwner",
          "type": "address"
        }
      ],
      "name": "transferOwnership",
      "outputs": [],
      "stateMutability": "nonpayable",
      "type": "function"
    },
    {
      "inputs": [
        {
          "internalType": "uint256",
          "name": "_supply",
          "type": "uint256"
        }
      ],
      "name": "updateCurrentSupply",
      "outputs": [],
      "stateMutability": "nonpayable",
      "type": "function"
    },
    {
      "inputs": [],
      "name": "withdraw",
      "outputs": [],
      "stateMutability": "nonpayable",
      "type": "function"
    },
    {
      "inputs": [
        {
          "internalType": "contract IERC20",
          "name": "token",
          "type": "address"
        }
      ],
      "name": "withdrawTokens",
      "outputs": [],
      "stateMutability": "nonpayable",
      "type": "function"
    }
  ],
  "bytecode": "0x608060405260c8600b556706f05b59d3b20000600c553480156200002257600080fd5b506040516200409238038062004092833981810160405281019062000048919062000515565b6040518060400160405280600a81526020017f547572696e67204b6579000000000000000000000000000000000000000000008152506040518060400160405280600481526020017f544b4559000000000000000000000000000000000000000000000000000000008152508160009080519060200190620000cc9291906200024f565b508060019080519060200190620000e59291906200024f565b50505062000108620000fc6200018160201b60201c565b6200018960201b60201c565b8160099080519060200190620001209291906200024f565b5080600760006101000a81548173ffffffffffffffffffffffffffffffffffffffff021916908373ffffffffffffffffffffffffffffffffffffffff1602179055506202a30042620001739190620005b4565b600881905550505062000676565b600033905090565b6000600660009054906101000a900473ffffffffffffffffffffffffffffffffffffffff16905081600660006101000a81548173ffffffffffffffffffffffffffffffffffffffff021916908373ffffffffffffffffffffffffffffffffffffffff1602179055508173ffffffffffffffffffffffffffffffffffffffff168173ffffffffffffffffffffffffffffffffffffffff167f8be0079c531659141344cd1fd0a4f28419497f9722a3daafe3b4186f6b6457e060405160405180910390a35050565b8280546200025d9062000640565b90600052602060002090601f016020900481019282620002815760008555620002cd565b82601f106200029c57805160ff1916838001178555620002cd565b82800160010185558215620002cd579182015b82811115620002cc578251825591602001919060010190620002af565b5b509050620002dc9190620002e0565b5090565b5b80821115620002fb576000816000905550600101620002e1565b5090565b6000604051905090565b600080fd5b600080fd5b600080fd5b600080fd5b6000601f19601f8301169050919050565b7f4e487b7100000000000000000000000000000000000000000000000000000000600052604160045260246000fd5b62000368826200031d565b810181811067ffffffffffffffff821117156200038a57620003896200032e565b5b80604052505050565b60006200039f620002ff565b9050620003ad82826200035d565b919050565b600067ffffffffffffffff821115620003d057620003cf6200032e565b5b620003db826200031d565b9050602081019050919050565b60005b8381101562000408578082015181840152602081019050620003eb565b8381111562000418576000848401525b50505050565b6000620004356200042f84620003b2565b62000393565b90508281526020810184848401111562000454576200045362000318565b5b62000461848285620003e8565b509392505050565b600082601f83011262000481576200048062000313565b5b8151620004938482602086016200041e565b91505092915050565b600073ffffffffffffffffffffffffffffffffffffffff82169050919050565b6000620004c9826200049c565b9050919050565b6000620004dd82620004bc565b9050919050565b620004ef81620004d0565b8114620004fb57600080fd5b50565b6000815190506200050f81620004e4565b92915050565b600080604083850312156200052f576200052e62000309565b5b600083015167ffffffffffffffff81111562000550576200054f6200030e565b5b6200055e8582860162000469565b92505060206200057185828601620004fe565b9150509250929050565b6000819050919050565b7f4e487b7100000000000000000000000000000000000000000000000000000000600052601160045260246000fd5b6000620005c1826200057b565b9150620005ce836200057b565b9250827fffffffffffffffffffffffffffffffffffffffffffffffffffffffffffffffff0382111562000606576200060562000585565b5b828201905092915050565b7f4e487b7100000000000000000000000000000000000000000000000000000000600052602260045260246000fd5b600060028204905060018216806200065957607f821691505b6020821081141562000670576200066f62000611565b5b50919050565b613a0c80620006866000396000f3fe6080604052600436106101d85760003560e01c8063761c4c4011610102578063a22cb46511610095578063d33219b411610064578063d33219b414610659578063e985e9c514610684578063f2fde38b146106c1578063fb980a9c146106ea576101d8565b8063a22cb4651461059f578063b88d4fde146105c8578063c87b56dd146105f1578063cb70db9e1461062e576101d8565b806395d89b41116100d157806395d89b41146104f35780639b6860c81461051e5780639d5fa571146105495780639f181b5e14610574576101d8565b8063761c4c4014610458578063771282f614610474578063791a25191461049f5780638da5cb5b146104c8576101d8565b806342842e0e1161017a5780636352211e116101495780636352211e146103ab578063691562a0146103e857806370a0823114610404578063715018a614610441576101d8565b806342842e0e1461030757806342966c681461033057806349df728c14610359578063577255de14610382576101d8565b8063095ea7b3116101b6578063095ea7b31461028257806323b872dd146102ab5780633ccfd60b146102d457806341b66e43146102eb576101d8565b806301ffc9a7146101dd57806306fdde031461021a578063081812fc14610245575b600080fd5b3480156101e957600080fd5b5061020460048036038101906101ff9190612a8d565b610713565b6040516102119190612ad5565b60405180910390f35b34801561022657600080fd5b5061022f6107a5565b60405161023c9190612b89565b60405180910390f35b34801561025157600080fd5b5061026c60048036038101906102679190612be1565b610833565b6040516102799190612c4f565b60405180910390f35b34801561028e57600080fd5b506102a960048036038101906102a49190612c96565b610866565b005b3480156102b757600080fd5b506102d260048036038101906102cd9190612cd6565b610a4f565b005b3480156102e057600080fd5b506102e9610e4f565b005b61030560048036038101906103009190612e97565b610f1a565b005b34801561031357600080fd5b5061032e60048036038101906103299190612cd6565b6111f1565b005b34801561033c57600080fd5b5061035760048036038101906103529190612be1565b611329565b005b34801561036557600080fd5b50610380600480360381019061037b9190612f44565b611335565b005b34801561038e57600080fd5b506103a960048036038101906103a49190612be1565b6114b2565b005b3480156103b757600080fd5b506103d260048036038101906103cd9190612be1565b6115ce565b6040516103df9190612c4f565b60405180910390f35b61040260048036038101906103fd9190612f71565b611601565b005b34801561041057600080fd5b5061042b60048036038101906104269190612fb1565b6118d6565b6040516104389190612fed565b60405180910390f35b34801561044d57600080fd5b506104566118ee565b005b610472600480360381019061046d9190612f71565b611976565b005b34801561048057600080fd5b50610489611c4b565b6040516104969190612fed565b60405180910390f35b3480156104ab57600080fd5b506104c660048036038101906104c19190612be1565b611c51565b005b3480156104d457600080fd5b506104dd611cd7565b6040516104ea9190612c4f565b60405180910390f35b3480156104ff57600080fd5b50610508611d01565b6040516105159190612b89565b60405180910390f35b34801561052a57600080fd5b50610533611d8f565b6040516105409190612fed565b60405180910390f35b34801561055557600080fd5b5061055e611d95565b60405161056b9190613017565b60405180910390f35b34801561058057600080fd5b50610589611d9a565b6040516105969190612fed565b60405180910390f35b3480156105ab57600080fd5b506105c660048036038101906105c1919061305e565b611da0565b005b3480156105d457600080fd5b506105ef60048036038101906105ea919061309e565b611e9d565b005b3480156105fd57600080fd5b5061061860048036038101906106139190612be1565b611fd8565b6040516106259190612b89565b60405180910390f35b34801561063a57600080fd5b5061064361206c565b6040516106509190612fed565b60405180910390f35b34801561066557600080fd5b5061066e612072565b60405161067b9190612fed565b60405180910390f35b34801561069057600080fd5b506106ab60048036038101906106a69190613121565b612078565b6040516106b89190612ad5565b60405180910390f35b3480156106cd57600080fd5b506106e860048036038101906106e39190612fb1565b6120a7565b005b3480156106f657600080fd5b50610711600480360381019061070c9190613202565b61219f565b005b60006301ffc9a760e01b827bffffffffffffffffffffffffffffffffffffffffffffffffffffffff1916148061076e57506380ac58cd60e01b827bffffffffffffffffffffffffffffffffffffffffffffffffffffffff1916145b8061079e5750635b5e139f60e01b827bffffffffffffffffffffffffffffffffffffffffffffffffffffffff1916145b9050919050565b600080546107b29061327a565b80601f01602080910402602001604051908101604052809291908181526020018280546107de9061327a565b801561082b5780601f106108005761010080835404028352916020019161082b565b820191906000526020600020905b81548152906001019060200180831161080e57829003601f168201915b505050505081565b60046020528060005260406000206000915054906101000a900473ffffffffffffffffffffffffffffffffffffffff1681565b60006003600083815260200190815260200160002060009054906101000a900473ffffffffffffffffffffffffffffffffffffffff1690508073ffffffffffffffffffffffffffffffffffffffff163373ffffffffffffffffffffffffffffffffffffffff16148061095e5750600560008273ffffffffffffffffffffffffffffffffffffffff1673ffffffffffffffffffffffffffffffffffffffff16815260200190815260200160002060003373ffffffffffffffffffffffffffffffffffffffff1673ffffffffffffffffffffffffffffffffffffffff16815260200190815260200160002060009054906101000a900460ff165b61099d576040517f08c379a0000000000000000000000000000000000000000000000000000000008152600401610994906132f8565b60405180910390fd5b826004600084815260200190815260200160002060006101000a81548173ffffffffffffffffffffffffffffffffffffffff021916908373ffffffffffffffffffffffffffffffffffffffff160217905550818373ffffffffffffffffffffffffffffffffffffffff168273ffffffffffffffffffffffffffffffffffffffff167f8c5be1e5ebec7d5bd14f71427d1e84f3dd0314c0f7b2291e5b200ac8c7c3b92560405160405180910390a4505050565b6003600082815260200190815260200160002060009054906101000a900473ffffffffffffffffffffffffffffffffffffffff1673ffffffffffffffffffffffffffffffffffffffff168373ffffffffffffffffffffffffffffffffffffffff1614610af0576040517f08c379a0000000000000000000000000000000000000000000000000000000008152600401610ae790613364565b60405180910390fd5b600073ffffffffffffffffffffffffffffffffffffffff168273ffffffffffffffffffffffffffffffffffffffff161415610b60576040517f08c379a0000000000000000000000000000000000000000000000000000000008152600401610b57906133d0565b60405180910390fd5b8273ffffffffffffffffffffffffffffffffffffffff163373ffffffffffffffffffffffffffffffffffffffff161480610bf857506004600082815260200190815260200160002060009054906101000a900473ffffffffffffffffffffffffffffffffffffffff1673ffffffffffffffffffffffffffffffffffffffff163373ffffffffffffffffffffffffffffffffffffffff16145b80610c895750600560008473ffffffffffffffffffffffffffffffffffffffff1673ffffffffffffffffffffffffffffffffffffffff16815260200190815260200160002060003373ffffffffffffffffffffffffffffffffffffffff1673ffffffffffffffffffffffffffffffffffffffff16815260200190815260200160002060009054906101000a900460ff165b610cc8576040517f08c379a0000000000000000000000000000000000000000000000000000000008152600401610cbf906132f8565b60405180910390fd5b600260008473ffffffffffffffffffffffffffffffffffffffff1673ffffffffffffffffffffffffffffffffffffffff1681526020019081526020016000206000815480929190600190039190505550600260008373ffffffffffffffffffffffffffffffffffffffff1673ffffffffffffffffffffffffffffffffffffffff16815260200190815260200160002060008154809291906001019190505550816003600083815260200190815260200160002060006101000a81548173ffffffffffffffffffffffffffffffffffffffff021916908373ffffffffffffffffffffffffffffffffffffffff1602179055506004600082815260200190815260200160002060006101000a81549073ffffffffffffffffffffffffffffffffffffffff0219169055808273ffffffffffffffffffffffffffffffffffffffff168473ffffffffffffffffffffffffffffffffffffffff167fddf252ad1be2c89b69c2b068fc378daa952ba7f163c4a11628f55a4df523b3ef60405160405180910390a4505050565b610e57612235565b73ffffffffffffffffffffffffffffffffffffffff16610e75611cd7565b73ffffffffffffffffffffffffffffffffffffffff1614610ecb576040517f08c379a0000000000000000000000000000000000000000000000000000000008152600401610ec29061343c565b60405180910390fd5b60004790503373ffffffffffffffffffffffffffffffffffffffff166108fc829081150290604051600060405180830381858888f19350505050158015610f16573d6000803e3d6000fd5b5050565b8282600854421015611008576000600760009054906101000a900473ffffffffffffffffffffffffffffffffffffffff1673ffffffffffffffffffffffffffffffffffffffff16638da7ad23336040518263ffffffff1660e01b8152600401610f839190612c4f565b602060405180830381865afa158015610fa0573d6000803e3d6000fd5b505050506040513d601f19601f82011682018060405250810190610fc49190613471565b141561100757336040517f901a767e000000000000000000000000000000000000000000000000000000008152600401610ffe9190612c4f565b60405180910390fd5b5b600b548160ff16600a5461101c91906134cd565b10611053576040517fa2a40cc400000000000000000000000000000000000000000000000000000000815260040160405180910390fd5b600a60ff168160ff16600260008573ffffffffffffffffffffffffffffffffffffffff1673ffffffffffffffffffffffffffffffffffffffff168152602001908152602001600020546110a691906134cd565b1115611139578060ff16600260008473ffffffffffffffffffffffffffffffffffffffff1673ffffffffffffffffffffffffffffffffffffffff168152602001908152602001600020546110fa91906134cd565b600a6040517fc9cf6a00000000000000000000000000000000000000000000000000000000008152600401611130929190613523565b60405180910390fd5b348160ff16600c5461114b919061354c565b11156111a0578060ff16600c54611162919061354c565b346040517f03eb8b540000000000000000000000000000000000000000000000000000000081526004016111979291906135a6565b60405180910390fd5b60005b8460ff168160ff1610156111e957600a60008154809291906111c4906135cf565b91905055506111d686600a548661223d565b80806111e190613618565b9150506111a3565b505050505050565b6111fc838383610a4f565b60008273ffffffffffffffffffffffffffffffffffffffff163b14806112e5575063150b7a0260e01b7bffffffffffffffffffffffffffffffffffffffffffffffffffffffff19168273ffffffffffffffffffffffffffffffffffffffff1663150b7a023386856040518463ffffffff1660e01b815260040161128193929190613679565b6020604051808303816000875af11580156112a0573d6000803e3d6000fd5b505050506040513d601f19601f820116820180604052508101906112c491906136d8565b7bffffffffffffffffffffffffffffffffffffffffffffffffffffffff1916145b611324576040517f08c379a000000000000000000000000000000000000000000000000000000000815260040161131b90613751565b60405180910390fd5b505050565b61133281612377565b50565b61133d612235565b73ffffffffffffffffffffffffffffffffffffffff1661135b611cd7565b73ffffffffffffffffffffffffffffffffffffffff16146113b1576040517f08c379a00000000000000000000000000000000000000000000000000000000081526004016113a89061343c565b60405180910390fd5b60008173ffffffffffffffffffffffffffffffffffffffff166370a08231306040518263ffffffff1660e01b81526004016113ec9190612c4f565b602060405180830381865afa158015611409573d6000803e3d6000fd5b505050506040513d601f19601f8201168201806040525081019061142d9190613471565b90508173ffffffffffffffffffffffffffffffffffffffff1663a9059cbb33836040518363ffffffff1660e01b815260040161146a929190613771565b6020604051808303816000875af1158015611489573d6000803e3d6000fd5b505050506040513d601f19601f820116820180604052508101906114ad91906137af565b505050565b6114ba612235565b73ffffffffffffffffffffffffffffffffffffffff166114d8611cd7565b73ffffffffffffffffffffffffffffffffffffffff161461152e576040517f08c379a00000000000000000000000000000000000000000000000000000000081526004016115259061343c565b60405180910390fd5b6103c981111561157957806103c96040517f662442710000000000000000000000000000000000000000000000000000000081526004016115709291906135a6565b60405180910390fd5b600a548110156115c45780600a546040517fbfc5a5940000000000000000000000000000000000000000000000000000000081526004016115bb9291906135a6565b60405180910390fd5b80600b8190555050565b60036020528060005260406000206000915054906101000a900473ffffffffffffffffffffffffffffffffffffffff1681565b81816008544210156116ef576000600760009054906101000a900473ffffffffffffffffffffffffffffffffffffffff1673ffffffffffffffffffffffffffffffffffffffff16638da7ad23336040518263ffffffff1660e01b815260040161166a9190612c4f565b602060405180830381865afa158015611687573d6000803e3d6000fd5b505050506040513d601f19601f820116820180604052508101906116ab9190613471565b14156116ee57336040517f901a767e0000000000000000000000000000000000000000000000000000000081526004016116e59190612c4f565b60405180910390fd5b5b600b548160ff16600a5461170391906134cd565b1061173a576040517fa2a40cc400000000000000000000000000000000000000000000000000000000815260040160405180910390fd5b600a60ff168160ff16600260008573ffffffffffffffffffffffffffffffffffffffff1673ffffffffffffffffffffffffffffffffffffffff1681526020019081526020016000205461178d91906134cd565b1115611820578060ff16600260008473ffffffffffffffffffffffffffffffffffffffff1673ffffffffffffffffffffffffffffffffffffffff168152602001908152602001600020546117e191906134cd565b600a6040517fc9cf6a00000000000000000000000000000000000000000000000000000000008152600401611817929190613523565b60405180910390fd5b348160ff16600c54611832919061354c565b1115611887578060ff16600c54611849919061354c565b346040517f03eb8b5400000000000000000000000000000000000000000000000000000000815260040161187e9291906135a6565b60405180910390fd5b60005b8360ff168160ff1610156118cf57600a60008154809291906118ab906135cf565b91905055506118bc85600a5461256e565b80806118c790613618565b91505061188a565b5050505050565b60026020528060005260406000206000915090505481565b6118f6612235565b73ffffffffffffffffffffffffffffffffffffffff16611914611cd7565b73ffffffffffffffffffffffffffffffffffffffff161461196a576040517f08c379a00000000000000000000000000000000000000000000000000000000081526004016119619061343c565b60405180910390fd5b6119746000612781565b565b8181600854421015611a64576000600760009054906101000a900473ffffffffffffffffffffffffffffffffffffffff1673ffffffffffffffffffffffffffffffffffffffff16638da7ad23336040518263ffffffff1660e01b81526004016119df9190612c4f565b602060405180830381865afa1580156119fc573d6000803e3d6000fd5b505050506040513d601f19601f82011682018060405250810190611a209190613471565b1415611a6357336040517f901a767e000000000000000000000000000000000000000000000000000000008152600401611a5a9190612c4f565b60405180910390fd5b5b600b548160ff16600a54611a7891906134cd565b10611aaf576040517fa2a40cc400000000000000000000000000000000000000000000000000000000815260040160405180910390fd5b600a60ff168160ff16600260008573ffffffffffffffffffffffffffffffffffffffff1673ffffffffffffffffffffffffffffffffffffffff16815260200190815260200160002054611b0291906134cd565b1115611b95578060ff16600260008473ffffffffffffffffffffffffffffffffffffffff1673ffffffffffffffffffffffffffffffffffffffff16815260200190815260200160002054611b5691906134cd565b600a6040517fc9cf6a00000000000000000000000000000000000000000000000000000000008152600401611b8c929190613523565b60405180910390fd5b348160ff16600c54611ba7919061354c565b1115611bfc578060ff16600c54611bbe919061354c565b346040517f03eb8b54000000000000000000000000000000000000000000000000000000008152600401611bf39291906135a6565b60405180910390fd5b60005b8360ff168160ff161015611c4457600a6000815480929190611c20906135cf565b9190505550611c3185600a54612847565b8080611c3c90613618565b915050611bff565b5050505050565b600b5481565b611c59612235565b73ffffffffffffffffffffffffffffffffffffffff16611c77611cd7565b73ffffffffffffffffffffffffffffffffffffffff1614611ccd576040517f08c379a0000000000000000000000000000000000000000000000000000000008152600401611cc49061343c565b60405180910390fd5b80600c8190555050565b6000600660009054906101000a900473ffffffffffffffffffffffffffffffffffffffff16905090565b60018054611d0e9061327a565b80601f0160208091040260200160405190810160405280929190818152602001828054611d3a9061327a565b8015611d875780601f10611d5c57610100808354040283529160200191611d87565b820191906000526020600020905b815481529060010190602001808311611d6a57829003601f168201915b505050505081565b600c5481565b600a81565b600a5481565b80600560003373ffffffffffffffffffffffffffffffffffffffff1673ffffffffffffffffffffffffffffffffffffffff16815260200190815260200160002060008473ffffffffffffffffffffffffffffffffffffffff1673ffffffffffffffffffffffffffffffffffffffff16815260200190815260200160002060006101000a81548160ff0219169083151502179055508173ffffffffffffffffffffffffffffffffffffffff163373ffffffffffffffffffffffffffffffffffffffff167f17307eab39ab6107e8899845ad3d59bd9653f200f220920489ca2b5937696c3183604051611e919190612ad5565b60405180910390a35050565b611ea8848484610a4f565b60008373ffffffffffffffffffffffffffffffffffffffff163b1480611f93575063150b7a0260e01b7bffffffffffffffffffffffffffffffffffffffffffffffffffffffff19168373ffffffffffffffffffffffffffffffffffffffff1663150b7a02338786866040518563ffffffff1660e01b8152600401611f2f9493929190613820565b6020604051808303816000875af1158015611f4e573d6000803e3d6000fd5b505050506040513d601f19601f82011682018060405250810190611f7291906136d8565b7bffffffffffffffffffffffffffffffffffffffffffffffffffffffff1916145b611fd2576040517f08c379a0000000000000000000000000000000000000000000000000000000008152600401611fc990613751565b60405180910390fd5b50505050565b606060098054611fe79061327a565b80601f01602080910402602001604051908101604052809291908181526020018280546120139061327a565b80156120605780601f1061203557610100808354040283529160200191612060565b820191906000526020600020905b81548152906001019060200180831161204357829003601f168201915b50505050509050919050565b6103c981565b60085481565b60056020528160005260406000206020528060005260406000206000915091509054906101000a900460ff1681565b6120af612235565b73ffffffffffffffffffffffffffffffffffffffff166120cd611cd7565b73ffffffffffffffffffffffffffffffffffffffff1614612123576040517f08c379a000000000000000000000000000000000000000000000000000000000815260040161211a9061343c565b60405180910390fd5b600073ffffffffffffffffffffffffffffffffffffffff168173ffffffffffffffffffffffffffffffffffffffff161415612193576040517f08c379a000000000000000000000000000000000000000000000000000000000815260040161218a906138de565b60405180910390fd5b61219c81612781565b50565b6121a7612235565b73ffffffffffffffffffffffffffffffffffffffff166121c5611cd7565b73ffffffffffffffffffffffffffffffffffffffff161461221b576040517f08c379a00000000000000000000000000000000000000000000000000000000081526004016122129061343c565b60405180910390fd5b806009908051906020019061223192919061297e565b5050565b600033905090565b612247838361256e565b60008373ffffffffffffffffffffffffffffffffffffffff163b1480612333575063150b7a0260e01b7bffffffffffffffffffffffffffffffffffffffffffffffffffffffff19168373ffffffffffffffffffffffffffffffffffffffff1663150b7a0233600086866040518563ffffffff1660e01b81526004016122cf9493929190613820565b6020604051808303816000875af11580156122ee573d6000803e3d6000fd5b505050506040513d601f19601f8201168201806040525081019061231291906136d8565b7bffffffffffffffffffffffffffffffffffffffffffffffffffffffff1916145b612372576040517f08c379a000000000000000000000000000000000000000000000000000000000815260040161236990613751565b60405180910390fd5b505050565b60006003600083815260200190815260200160002060009054906101000a900473ffffffffffffffffffffffffffffffffffffffff169050600073ffffffffffffffffffffffffffffffffffffffff166003600084815260200190815260200160002060009054906101000a900473ffffffffffffffffffffffffffffffffffffffff1673ffffffffffffffffffffffffffffffffffffffff161415612452576040517f08c379a00000000000000000000000000000000000000000000000000000000081526004016124499061394a565b60405180910390fd5b600260008273ffffffffffffffffffffffffffffffffffffffff1673ffffffffffffffffffffffffffffffffffffffff16815260200190815260200160002060008154809291906001900391905055506003600083815260200190815260200160002060006101000a81549073ffffffffffffffffffffffffffffffffffffffff02191690556004600083815260200190815260200160002060006101000a81549073ffffffffffffffffffffffffffffffffffffffff021916905581600073ffffffffffffffffffffffffffffffffffffffff168273ffffffffffffffffffffffffffffffffffffffff167fddf252ad1be2c89b69c2b068fc378daa952ba7f163c4a11628f55a4df523b3ef60405160405180910390a45050565b600073ffffffffffffffffffffffffffffffffffffffff168273ffffffffffffffffffffffffffffffffffffffff1614156125de576040517f08c379a00000000000000000000000000000000000000000000000000000000081526004016125d5906133d0565b60405180910390fd5b600073ffffffffffffffffffffffffffffffffffffffff166003600083815260200190815260200160002060009054906101000a900473ffffffffffffffffffffffffffffffffffffffff1673ffffffffffffffffffffffffffffffffffffffff1614612680576040517f08c379a0000000000000000000000000000000000000000000000000000000008152600401612677906139b6565b60405180910390fd5b600260008373ffffffffffffffffffffffffffffffffffffffff1673ffffffffffffffffffffffffffffffffffffffff16815260200190815260200160002060008154809291906001019190505550816003600083815260200190815260200160002060006101000a81548173ffffffffffffffffffffffffffffffffffffffff021916908373ffffffffffffffffffffffffffffffffffffffff160217905550808273ffffffffffffffffffffffffffffffffffffffff16600073ffffffffffffffffffffffffffffffffffffffff167fddf252ad1be2c89b69c2b068fc378daa952ba7f163c4a11628f55a4df523b3ef60405160405180910390a45050565b6000600660009054906101000a900473ffffffffffffffffffffffffffffffffffffffff16905081600660006101000a81548173ffffffffffffffffffffffffffffffffffffffff021916908373ffffffffffffffffffffffffffffffffffffffff1602179055508173ffffffffffffffffffffffffffffffffffffffff168173ffffffffffffffffffffffffffffffffffffffff167f8be0079c531659141344cd1fd0a4f28419497f9722a3daafe3b4186f6b6457e060405160405180910390a35050565b612851828261256e565b60008273ffffffffffffffffffffffffffffffffffffffff163b148061293b575063150b7a0260e01b7bffffffffffffffffffffffffffffffffffffffffffffffffffffffff19168273ffffffffffffffffffffffffffffffffffffffff1663150b7a02336000856040518463ffffffff1660e01b81526004016128d793929190613679565b6020604051808303816000875af11580156128f6573d6000803e3d6000fd5b505050506040513d601f19601f8201168201806040525081019061291a91906136d8565b7bffffffffffffffffffffffffffffffffffffffffffffffffffffffff1916145b61297a576040517f08c379a000000000000000000000000000000000000000000000000000000000815260040161297190613751565b60405180910390fd5b5050565b82805461298a9061327a565b90600052602060002090601f0160209004810192826129ac57600085556129f3565b82601f106129c557805160ff19168380011785556129f3565b828001600101855582156129f3579182015b828111156129f25782518255916020019190600101906129d7565b5b509050612a009190612a04565b5090565b5b80821115612a1d576000816000905550600101612a05565b5090565b6000604051905090565b600080fd5b600080fd5b60007fffffffff0000000000000000000000000000000000000000000000000000000082169050919050565b612a6a81612a35565b8114612a7557600080fd5b50565b600081359050612a8781612a61565b92915050565b600060208284031215612aa357612aa2612a2b565b5b6000612ab184828501612a78565b91505092915050565b60008115159050919050565b612acf81612aba565b82525050565b6000602082019050612aea6000830184612ac6565b92915050565b600081519050919050565b600082825260208201905092915050565b60005b83811015612b2a578082015181840152602081019050612b0f565b83811115612b39576000848401525b50505050565b6000601f19601f8301169050919050565b6000612b5b82612af0565b612b658185612afb565b9350612b75818560208601612b0c565b612b7e81612b3f565b840191505092915050565b60006020820190508181036000830152612ba38184612b50565b905092915050565b6000819050919050565b612bbe81612bab565b8114612bc957600080fd5b50565b600081359050612bdb81612bb5565b92915050565b600060208284031215612bf757612bf6612a2b565b5b6000612c0584828501612bcc565b91505092915050565b600073ffffffffffffffffffffffffffffffffffffffff82169050919050565b6000612c3982612c0e565b9050919050565b612c4981612c2e565b82525050565b6000602082019050612c646000830184612c40565b92915050565b612c7381612c2e565b8114612c7e57600080fd5b50565b600081359050612c9081612c6a565b92915050565b60008060408385031215612cad57612cac612a2b565b5b6000612cbb85828601612c81565b9250506020612ccc85828601612bcc565b9150509250929050565b600080600060608486031215612cef57612cee612a2b565b5b6000612cfd86828701612c81565b9350506020612d0e86828701612c81565b9250506040612d1f86828701612bcc565b9150509250925092565b600060ff82169050919050565b612d3f81612d29565b8114612d4a57600080fd5b50565b600081359050612d5c81612d36565b92915050565b600080fd5b600080fd5b7f4e487b7100000000000000000000000000000000000000000000000000000000600052604160045260246000fd5b612da482612b3f565b810181811067ffffffffffffffff82111715612dc357612dc2612d6c565b5b80604052505050565b6000612dd6612a21565b9050612de28282612d9b565b919050565b600067ffffffffffffffff821115612e0257612e01612d6c565b5b612e0b82612b3f565b9050602081019050919050565b82818337600083830152505050565b6000612e3a612e3584612de7565b612dcc565b905082815260208101848484011115612e5657612e55612d67565b5b612e61848285612e18565b509392505050565b600082601f830112612e7e57612e7d612d62565b5b8135612e8e848260208601612e27565b91505092915050565b600080600060608486031215612eb057612eaf612a2b565b5b6000612ebe86828701612c81565b9350506020612ecf86828701612d4d565b925050604084013567ffffffffffffffff811115612ef057612eef612a30565b5b612efc86828701612e69565b9150509250925092565b6000612f1182612c2e565b9050919050565b612f2181612f06565b8114612f2c57600080fd5b50565b600081359050612f3e81612f18565b92915050565b600060208284031215612f5a57612f59612a2b565b5b6000612f6884828501612f2f565b91505092915050565b60008060408385031215612f8857612f87612a2b565b5b6000612f9685828601612c81565b9250506020612fa785828601612d4d565b9150509250929050565b600060208284031215612fc757612fc6612a2b565b5b6000612fd584828501612c81565b91505092915050565b612fe781612bab565b82525050565b60006020820190506130026000830184612fde565b92915050565b61301181612d29565b82525050565b600060208201905061302c6000830184613008565b92915050565b61303b81612aba565b811461304657600080fd5b50565b60008135905061305881613032565b92915050565b6000806040838503121561307557613074612a2b565b5b600061308385828601612c81565b925050602061309485828601613049565b9150509250929050565b600080600080608085870312156130b8576130b7612a2b565b5b60006130c687828801612c81565b94505060206130d787828801612c81565b93505060406130e887828801612bcc565b925050606085013567ffffffffffffffff81111561310957613108612a30565b5b61311587828801612e69565b91505092959194509250565b6000806040838503121561313857613137612a2b565b5b600061314685828601612c81565b925050602061315785828601612c81565b9150509250929050565b600067ffffffffffffffff82111561317c5761317b612d6c565b5b61318582612b3f565b9050602081019050919050565b60006131a56131a084613161565b612dcc565b9050828152602081018484840111156131c1576131c0612d67565b5b6131cc848285612e18565b509392505050565b600082601f8301126131e9576131e8612d62565b5b81356131f9848260208601613192565b91505092915050565b60006020828403121561321857613217612a2b565b5b600082013567ffffffffffffffff81111561323657613235612a30565b5b613242848285016131d4565b91505092915050565b7f4e487b7100000000000000000000000000000000000000000000000000000000600052602260045260246000fd5b6000600282049050600182168061329257607f821691505b602082108114156132a6576132a561324b565b5b50919050565b7f4e4f545f415554484f52495a4544000000000000000000000000000000000000600082015250565b60006132e2600e83612afb565b91506132ed826132ac565b602082019050919050565b60006020820190508181036000830152613311816132d5565b9050919050565b7f57524f4e475f46524f4d00000000000000000000000000000000000000000000600082015250565b600061334e600a83612afb565b915061335982613318565b602082019050919050565b6000602082019050818103600083015261337d81613341565b9050919050565b7f494e56414c49445f524543495049454e54000000000000000000000000000000600082015250565b60006133ba601183612afb565b91506133c582613384565b602082019050919050565b600060208201905081810360008301526133e9816133ad565b9050919050565b7f4f776e61626c653a2063616c6c6572206973206e6f7420746865206f776e6572600082015250565b6000613426602083612afb565b9150613431826133f0565b602082019050919050565b6000602082019050818103600083015261345581613419565b9050919050565b60008151905061346b81612bb5565b92915050565b60006020828403121561348757613486612a2b565b5b60006134958482850161345c565b91505092915050565b7f4e487b7100000000000000000000000000000000000000000000000000000000600052601160045260246000fd5b60006134d882612bab565b91506134e383612bab565b9250827fffffffffffffffffffffffffffffffffffffffffffffffffffffffffffffffff038211156135185761351761349e565b5b828201905092915050565b60006040820190506135386000830185612fde565b6135456020830184613008565b9392505050565b600061355782612bab565b915061356283612bab565b9250817fffffffffffffffffffffffffffffffffffffffffffffffffffffffffffffffff048311821515161561359b5761359a61349e565b5b828202905092915050565b60006040820190506135bb6000830185612fde565b6135c86020830184612fde565b9392505050565b60006135da82612bab565b91507fffffffffffffffffffffffffffffffffffffffffffffffffffffffffffffffff82141561360d5761360c61349e565b5b600182019050919050565b600061362382612d29565b915060ff8214156136375761363661349e565b5b600182019050919050565b600082825260208201905092915050565b50565b6000613663600083613642565b915061366e82613653565b600082019050919050565b600060808201905061368e6000830186612c40565b61369b6020830185612c40565b6136a86040830184612fde565b81810360608301526136b981613656565b9050949350505050565b6000815190506136d281612a61565b92915050565b6000602082840312156136ee576136ed612a2b565b5b60006136fc848285016136c3565b91505092915050565b7f554e534146455f524543495049454e5400000000000000000000000000000000600082015250565b600061373b601083612afb565b915061374682613705565b602082019050919050565b6000602082019050818103600083015261376a8161372e565b9050919050565b60006040820190506137866000830185612c40565b6137936020830184612fde565b9392505050565b6000815190506137a981613032565b92915050565b6000602082840312156137c5576137c4612a2b565b5b60006137d38482850161379a565b91505092915050565b600081519050919050565b60006137f2826137dc565b6137fc8185613642565b935061380c818560208601612b0c565b61381581612b3f565b840191505092915050565b60006080820190506138356000830187612c40565b6138426020830186612c40565b61384f6040830185612fde565b818103606083015261386181846137e7565b905095945050505050565b7f4f776e61626c653a206e6577206f776e657220697320746865207a65726f206160008201527f6464726573730000000000000000000000000000000000000000000000000000602082015250565b60006138c8602683612afb565b91506138d38261386c565b604082019050919050565b600060208201905081810360008301526138f7816138bb565b9050919050565b7f4e4f545f4d494e54454400000000000000000000000000000000000000000000600082015250565b6000613934600a83612afb565b915061393f826138fe565b602082019050919050565b6000602082019050818103600083015261396381613927565b9050919050565b7f414c52454144595f4d494e544544000000000000000000000000000000000000600082015250565b60006139a0600e83612afb565b91506139ab8261396a565b602082019050919050565b600060208201905081810360008301526139cf81613993565b905091905056fea2646970667358221220c9c210dad34994a8c2e77e1b1fc8a1698e658a026f33e4f504c661444d7ea68664736f6c634300080b0033",
  "linkReferences": {},
  "deployedLinkReferences": {}
}